OUT 20190523-08:50:36.780304385 8=FIX.4.4|9=86|35=A|49=MAP_STLB_BETA|56=MAP_BLP_BETA|34=1|52=20190523-08:50:36.780|98=0|108=30|141=Y|10=191|
 IN 20190523-08:50:41.097498219 8=FIX.4.4|9=0082|35=A|49=MAP_BLP_BETA|56=MAP_STLB_BETA|34=1|52=20190523-08:50:09|98=0|108=30|141=Y|10=078|
 IN 20190523-08:50:41.098034111 8=FIX.4.4|9=0092|35=1|49=MAP_BLP_BETA|56=MAP_STLB_BETA|34=2|52=20190523-08:50:09|112=L.0001.0002.0002.085009|10=075|
OUT 20190523-08:50:41.099715603 8=FIX.4.4|9=96|35=0|49=MAP_STLB_BETA|56=MAP_BLP_BETA|34=2|52=20190523-08:50:41.099|112=L.0001.0002.0002.085009|10=186|
 IN 20190523-08:50:41.270102585 8=FIX.4.4|9=0092|35=1|49=MAP_BLP_BETA|56=MAP_STLB_BETA|34=3|52=20190523-08:50:09|112=A.0003.0003.0003.085009|10=069|
OUT 20190523-08:50:41.279226840 8=FIX.4.4|9=96|35=0|49=MAP_STLB_BETA|56=MAP_BLP_BETA|34=3|52=20190523-08:50:41.279|112=A.0003.0003.0003.085009|10=180|
 IN 20190523-08:51:11.271834422 8=FIX.4.4|9=0064|35=0|49=MAP_BLP_BETA|56=MAP_STLB_BETA|34=4|52=20190523-08:50:39|10=253|
OUT 20190523-08:51:11.280828117 8=FIX.4.4|9=68|35=0|49=MAP_STLB_BETA|56=MAP_BLP_BETA|34=4|52=20190523-08:51:11.280|10=096|
 IN 20190523-08:51:41.263160727 8=FIX.4.4|9=0064|35=0|49=MAP_BLP_BETA|56=MAP_STLB_BETA|34=5|52=20190523-08:51:09|10=252|
OUT 20190523-08:51:41.282388435 8=FIX.4.4|9=68|35=0|49=MAP_STLB_BETA|56=MAP_BLP_BETA|34=5|52=20190523-08:51:41.282|10=102|
 IN 20190523-08:52:11.272253835 8=FIX.4.4|9=0064|35=0|49=MAP_BLP_BETA|56=MAP_STLB_BETA|34=6|52=20190523-08:51:39|10=000|
OUT 20190523-08:52:11.282777555 8=FIX.4.4|9=68|35=0|49=MAP_STLB_BETA|56=MAP_BLP_BETA|34=6|52=20190523-08:52:11.282|10=101|
 IN 20190523-08:52:41.275160711 8=FIX.4.4|9=0064|35=0|49=MAP_BLP_BETA|56=MAP_STLB_BETA|34=7|52=20190523-08:52:09|10=255|
OUT 20190523-08:52:41.283147048 8=FIX.4.4|9=68|35=0|49=MAP_STLB_BETA|56=MAP_BLP_BETA|34=7|52=20190523-08:52:41.283|10=106|
OUT 20190523-08:53:11.283658621 8=FIX.4.4|9=68|35=0|49=MAP_STLB_BETA|56=MAP_BLP_BETA|34=8|52=20190523-08:53:11.283|10=105|
 IN 20190523-08:53:11.342530865 8=FIX.4.4|9=0064|35=0|49=MAP_BLP_BETA|56=MAP_STLB_BETA|34=8|52=20190523-08:52:39|10=003|
 IN 20190523-08:53:41.276008497 8=FIX.4.4|9=0064|35=0|49=MAP_BLP_BETA|56=MAP_STLB_BETA|34=9|52=20190523-08:53:09|10=002|
OUT 20190523-08:53:41.284471419 8=FIX.4.4|9=68|35=0|49=MAP_STLB_BETA|56=MAP_BLP_BETA|34=9|52=20190523-08:53:41.284|10=110|
 IN 20190523-08:54:11.278869293 8=FIX.4.4|9=0065|35=0|49=MAP_BLP_BETA|56=MAP_STLB_BETA|34=10|52=20190523-08:53:39|10=046|
OUT 20190523-08:54:11.284648486 8=FIX.4.4|9=69|35=0|49=MAP_STLB_BETA|56=MAP_BLP_BETA|34=10|52=20190523-08:54:11.284|10=149|
 IN 20190523-08:54:41.278039001 8=FIX.4.4|9=0065|35=0|49=MAP_BLP_BETA|56=MAP_STLB_BETA|34=11|52=20190523-08:54:09|10=045|
OUT 20190523-08:54:41.284683046 8=FIX.4.4|9=69|35=0|49=MAP_STLB_BETA|56=MAP_BLP_BETA|34=11|52=20190523-08:54:41.284|10=153|
 IN 20190523-08:55:11.281135317 8=FIX.4.4|9=0065|35=0|49=MAP_BLP_BETA|56=MAP_STLB_BETA|34=12|52=20190523-08:54:39|10=049|
OUT 20190523-08:55:11.285128912 8=FIX.4.4|9=69|35=0|49=MAP_STLB_BETA|56=MAP_BLP_BETA|34=12|52=20190523-08:55:11.285|10=153|
 IN 20190523-08:55:41.279758892 8=FIX.4.4|9=0065|35=0|49=MAP_BLP_BETA|56=MAP_STLB_BETA|34=13|52=20190523-08:55:09|10=048|
OUT 20190523-08:55:41.285687418 8=FIX.4.4|9=69|35=0|49=MAP_STLB_BETA|56=MAP_BLP_BETA|34=13|52=20190523-08:55:41.285|10=157|
 IN 20190523-08:56:11.273247114 8=FIX.4.4|9=0065|35=0|49=MAP_BLP_BETA|56=MAP_STLB_BETA|34=14|52=20190523-08:55:39|10=052|
OUT 20190523-08:56:11.287041656 8=FIX.4.4|9=69|35=0|49=MAP_STLB_BETA|56=MAP_BLP_BETA|34=14|52=20190523-08:56:11.287|10=158|
 IN 20190523-08:56:41.274104713 8=FIX.4.4|9=0065|35=0|49=MAP_BLP_BETA|56=MAP_STLB_BETA|34=15|52=20190523-08:56:09|10=051|
OUT 20190523-08:56:41.287104376 8=FIX.4.4|9=69|35=0|49=MAP_STLB_BETA|56=MAP_BLP_BETA|34=15|52=20190523-08:56:41.287|10=162|
 IN 20190523-08:57:11.273928926 8=FIX.4.4|9=0065|35=0|49=MAP_BLP_BETA|56=MAP_STLB_BETA|34=16|52=20190523-08:56:39|10=055|
OUT 20190523-08:57:11.287893708 8=FIX.4.4|9=69|35=0|49=MAP_STLB_BETA|56=MAP_BLP_BETA|34=16|52=20190523-08:57:11.287|10=161|
 IN 20190523-08:57:41.279097133 8=FIX.4.4|9=0065|35=0|49=MAP_BLP_BETA|56=MAP_STLB_BETA|34=17|52=20190523-08:57:09|10=054|
OUT 20190523-08:57:41.288229068 8=FIX.4.4|9=69|35=0|49=MAP_STLB_BETA|56=MAP_BLP_BETA|34=17|52=20190523-08:57:41.288|10=166|
 IN 20190523-08:58:11.279240919 8=FIX.4.4|9=0065|35=0|49=MAP_BLP_BETA|56=MAP_STLB_BETA|34=18|52=20190523-08:57:39|10=058|
OUT 20190523-08:58:11.288971467 8=FIX.4.4|9=69|35=0|49=MAP_STLB_BETA|56=MAP_BLP_BETA|34=18|52=20190523-08:58:11.288|10=165|
 IN 20190523-08:58:41.272509835 8=FIX.4.4|9=0065|35=0|49=MAP_BLP_BETA|56=MAP_STLB_BETA|34=19|52=20190523-08:58:09|10=057|
OUT 20190523-08:58:41.289188640 8=FIX.4.4|9=69|35=0|49=MAP_STLB_BETA|56=MAP_BLP_BETA|34=19|52=20190523-08:58:41.289|10=170|
 IN 20190523-08:59:11.275333511 8=FIX.4.4|9=0065|35=0|49=MAP_BLP_BETA|56=MAP_STLB_BETA|34=20|52=20190523-08:58:39|10=052|
OUT 20190523-08:59:11.290048372 8=FIX.4.4|9=69|35=0|49=MAP_STLB_BETA|56=MAP_BLP_BETA|34=20|52=20190523-08:59:11.290|10=152|
 IN 20190523-08:59:41.275169671 8=FIX.4.4|9=0065|35=0|49=MAP_BLP_BETA|56=MAP_STLB_BETA|34=21|52=20190523-08:59:09|10=051|
OUT 20190523-08:59:41.290273225 8=FIX.4.4|9=69|35=0|49=MAP_STLB_BETA|56=MAP_BLP_BETA|34=21|52=20190523-08:59:41.290|10=156|
 IN 20190523-09:00:11.277646895 8=FIX.4.4|9=0065|35=0|49=MAP_BLP_BETA|56=MAP_STLB_BETA|34=22|52=20190523-08:59:39|10=055|
OUT 20190523-09:00:11.290312479 8=FIX.4.4|9=69|35=0|49=MAP_STLB_BETA|56=MAP_BLP_BETA|34=22|52=20190523-09:00:11.290|10=141|
 IN 20190523-09:00:41.278492120 8=FIX.4.4|9=0065|35=0|49=MAP_BLP_BETA|56=MAP_STLB_BETA|34=23|52=20190523-09:00:09|10=040|
OUT 20190523-09:00:41.290456692 8=FIX.4.4|9=69|35=0|49=MAP_STLB_BETA|56=MAP_BLP_BETA|34=23|52=20190523-09:00:41.290|10=145|
 IN 20190523-09:01:11.271610423 8=FIX.4.4|9=0065|35=0|49=MAP_BLP_BETA|56=MAP_STLB_BETA|34=24|52=20190523-09:00:39|10=044|
OUT 20190523-09:01:11.291334771 8=FIX.4.4|9=69|35=0|49=MAP_STLB_BETA|56=MAP_BLP_BETA|34=24|52=20190523-09:01:11.291|10=145|
 IN 20190523-09:01:41.274955058 8=FIX.4.4|9=0065|35=0|49=MAP_BLP_BETA|56=MAP_STLB_BETA|34=25|52=20190523-09:01:09|10=043|
OUT 20190523-09:01:41.292209863 8=FIX.4.4|9=69|35=0|49=MAP_STLB_BETA|56=MAP_BLP_BETA|34=25|52=20190523-09:01:41.292|10=150|
 IN 20190523-09:02:11.274808712 8=FIX.4.4|9=0065|35=0|49=MAP_BLP_BETA|56=MAP_STLB_BETA|34=26|52=20190523-09:01:39|10=047|
OUT 20190523-09:02:11.292991089 8=FIX.4.4|9=69|35=0|49=MAP_STLB_BETA|56=MAP_BLP_BETA|34=26|52=20190523-09:02:11.292|10=149|
 IN 20190523-09:02:41.276059697 8=FIX.4.4|9=0065|35=0|49=MAP_BLP_BETA|56=MAP_STLB_BETA|34=27|52=20190523-09:02:09|10=046|
OUT 20190523-09:02:41.293320048 8=FIX.4.4|9=69|35=0|49=MAP_STLB_BETA|56=MAP_BLP_BETA|34=27|52=20190523-09:02:41.293|10=154|
 IN 20190523-09:03:11.276296497 8=FIX.4.4|9=0065|35=0|49=MAP_BLP_BETA|56=MAP_STLB_BETA|34=28|52=20190523-09:02:39|10=050|
OUT 20190523-09:03:11.293573914 8=FIX.4.4|9=69|35=0|49=MAP_STLB_BETA|56=MAP_BLP_BETA|34=28|52=20190523-09:03:11.293|10=153|
 IN 20190523-09:03:41.269214692 8=FIX.4.4|9=0065|35=0|49=MAP_BLP_BETA|56=MAP_STLB_BETA|34=29|52=20190523-09:03:09|10=049|
OUT 20190523-09:03:41.293601648 8=FIX.4.4|9=69|35=0|49=MAP_STLB_BETA|56=MAP_BLP_BETA|34=29|52=20190523-09:03:41.293|10=157|
 IN 20190523-09:04:11.270848824 8=FIX.4.4|9=0065|35=0|49=MAP_BLP_BETA|56=MAP_STLB_BETA|34=30|52=20190523-09:03:39|10=044|
OUT 20190523-09:04:11.294049221 8=FIX.4.4|9=69|35=0|49=MAP_STLB_BETA|56=MAP_BLP_BETA|34=30|52=20190523-09:04:11.294|10=148|
 IN 20190523-09:04:41.269892238 8=FIX.4.4|9=0065|35=0|49=MAP_BLP_BETA|56=MAP_STLB_BETA|34=31|52=20190523-09:04:09|10=043|
OUT 20190523-09:04:41.294193860 8=FIX.4.4|9=69|35=0|49=MAP_STLB_BETA|56=MAP_BLP_BETA|34=31|52=20190523-09:04:41.294|10=152|
 IN 20190523-09:05:11.272204342 8=FIX.4.4|9=0065|35=0|49=MAP_BLP_BETA|56=MAP_STLB_BETA|34=32|52=20190523-09:04:39|10=047|
OUT 20190523-09:05:11.294448580 8=FIX.4.4|9=69|35=0|49=MAP_STLB_BETA|56=MAP_BLP_BETA|34=32|52=20190523-09:05:11.294|10=151|
 IN 20190523-09:05:41.273087114 8=FIX.4.4|9=0065|35=0|49=MAP_BLP_BETA|56=MAP_STLB_BETA|34=33|52=20190523-09:05:09|10=046|
OUT 20190523-09:05:41.294682393 8=FIX.4.4|9=69|35=0|49=MAP_STLB_BETA|56=MAP_BLP_BETA|34=33|52=20190523-09:05:41.294|10=155|
 IN 20190523-09:06:11.275885190 8=FIX.4.4|9=0065|35=0|49=MAP_BLP_BETA|56=MAP_STLB_BETA|34=34|52=20190523-09:05:39|10=050|
OUT 20190523-09:06:11.295566019 8=FIX.4.4|9=69|35=0|49=MAP_STLB_BETA|56=MAP_BLP_BETA|34=34|52=20190523-09:06:11.295|10=155|
 IN 20190523-09:06:41.267878801 8=FIX.4.4|9=0065|35=0|49=MAP_BLP_BETA|56=MAP_STLB_BETA|34=35|52=20190523-09:06:09|10=049|
OUT 20190523-09:06:41.295776365 8=FIX.4.4|9=69|35=0|49=MAP_STLB_BETA|56=MAP_BLP_BETA|34=35|52=20190523-09:06:41.295|10=159|
 IN 20190523-09:07:11.276663856 8=FIX.4.4|9=0065|35=0|49=MAP_BLP_BETA|56=MAP_STLB_BETA|34=36|52=20190523-09:06:39|10=053|
OUT 20190523-09:07:11.296697110 8=FIX.4.4|9=69|35=0|49=MAP_STLB_BETA|56=MAP_BLP_BETA|34=36|52=20190523-09:07:11.296|10=159|
 IN 20190523-09:07:41.268016187 8=FIX.4.4|9=0065|35=0|49=MAP_BLP_BETA|56=MAP_STLB_BETA|34=37|52=20190523-09:07:09|10=052|
OUT 20190523-09:07:41.297149377 8=FIX.4.4|9=69|35=0|49=MAP_STLB_BETA|56=MAP_BLP_BETA|34=37|52=20190523-09:07:41.297|10=164|
 IN 20190523-09:08:11.267061735 8=FIX.4.4|9=0065|35=0|49=MAP_BLP_BETA|56=MAP_STLB_BETA|34=38|52=20190523-09:07:39|10=056|
OUT 20190523-09:08:11.298064149 8=FIX.4.4|9=69|35=0|49=MAP_STLB_BETA|56=MAP_BLP_BETA|34=38|52=20190523-09:08:11.298|10=164|
 IN 20190523-09:08:41.269406265 8=FIX.4.4|9=0065|35=0|49=MAP_BLP_BETA|56=MAP_STLB_BETA|34=39|52=20190523-09:08:09|10=055|
OUT 20190523-09:08:41.298714388 8=FIX.4.4|9=69|35=0|49=MAP_STLB_BETA|56=MAP_BLP_BETA|34=39|52=20190523-09:08:41.298|10=168|
 IN 20190523-09:09:11.270969143 8=FIX.4.4|9=0065|35=0|49=MAP_BLP_BETA|56=MAP_STLB_BETA|34=40|52=20190523-09:08:39|10=050|
OUT 20190523-09:09:11.298459242 8=FIX.4.4|9=69|35=0|49=MAP_STLB_BETA|56=MAP_BLP_BETA|34=40|52=20190523-09:09:11.298|10=158|
 IN 20190523-09:09:41.271469196 8=FIX.4.4|9=0065|35=0|49=MAP_BLP_BETA|56=MAP_STLB_BETA|34=41|52=20190523-09:09:09|10=049|
OUT 20190523-09:09:41.298533908 8=FIX.4.4|9=69|35=0|49=MAP_STLB_BETA|56=MAP_BLP_BETA|34=41|52=20190523-09:09:41.298|10=162|
 IN 20190523-09:10:11.273686153 8=FIX.4.4|9=0065|35=0|49=MAP_BLP_BETA|56=MAP_STLB_BETA|34=42|52=20190523-09:09:39|10=053|
OUT 20190523-09:10:11.298670015 8=FIX.4.4|9=69|35=0|49=MAP_STLB_BETA|56=MAP_BLP_BETA|34=42|52=20190523-09:10:11.298|10=152|
 IN 20190523-09:10:41.273768073 8=FIX.4.4|9=0065|35=0|49=MAP_BLP_BETA|56=MAP_STLB_BETA|34=43|52=20190523-09:10:09|10=043|
OUT 20190523-09:10:41.299128681 8=FIX.4.4|9=69|35=0|49=MAP_STLB_BETA|56=MAP_BLP_BETA|34=43|52=20190523-09:10:41.299|10=157|
 IN 20190523-09:11:11.275870684 8=FIX.4.4|9=0065|35=0|49=MAP_BLP_BETA|56=MAP_STLB_BETA|34=44|52=20190523-09:10:39|10=047|
OUT 20190523-09:11:11.299254547 8=FIX.4.4|9=69|35=0|49=MAP_STLB_BETA|56=MAP_BLP_BETA|34=44|52=20190523-09:11:11.299|10=156|
 IN 20190523-09:11:41.277223215 8=FIX.4.4|9=0065|35=0|49=MAP_BLP_BETA|56=MAP_STLB_BETA|34=45|52=20190523-09:11:09|10=046|
OUT 20190523-09:11:41.299500734 8=FIX.4.4|9=69|35=0|49=MAP_STLB_BETA|56=MAP_BLP_BETA|34=45|52=20190523-09:11:41.299|10=160|
 IN 20190523-09:12:11.278190041 8=FIX.4.4|9=0065|35=0|49=MAP_BLP_BETA|56=MAP_STLB_BETA|34=46|52=20190523-09:11:39|10=050|
OUT 20190523-09:12:11.299962813 8=FIX.4.4|9=69|35=0|49=MAP_STLB_BETA|56=MAP_BLP_BETA|34=46|52=20190523-09:12:11.299|10=159|
 IN 20190523-09:12:41.280255105 8=FIX.4.4|9=0065|35=0|49=MAP_BLP_BETA|56=MAP_STLB_BETA|34=47|52=20190523-09:12:09|10=049|
OUT 20190523-09:12:41.300153959 8=FIX.4.4|9=69|35=0|49=MAP_STLB_BETA|56=MAP_BLP_BETA|34=47|52=20190523-09:12:41.300|10=146|
 IN 20190523-09:13:11.279693612 8=FIX.4.4|9=0065|35=0|49=MAP_BLP_BETA|56=MAP_STLB_BETA|34=48|52=20190523-09:12:39|10=053|
OUT 20190523-09:13:11.300165906 8=FIX.4.4|9=69|35=0|49=MAP_STLB_BETA|56=MAP_BLP_BETA|34=48|52=20190523-09:13:11.300|10=145|
 IN 20190523-09:13:41.282903848 8=FIX.4.4|9=0065|35=0|49=MAP_BLP_BETA|56=MAP_STLB_BETA|34=49|52=20190523-09:13:09|10=052|
OUT 20190523-09:13:41.300153533 8=FIX.4.4|9=69|35=0|49=MAP_STLB_BETA|56=MAP_BLP_BETA|34=49|52=20190523-09:13:41.300|10=149|
 IN 20190523-09:14:11.276533723 8=FIX.4.4|9=0065|35=0|49=MAP_BLP_BETA|56=MAP_STLB_BETA|34=50|52=20190523-09:13:39|10=047|
OUT 20190523-09:14:11.300860518 8=FIX.4.4|9=69|35=0|49=MAP_STLB_BETA|56=MAP_BLP_BETA|34=50|52=20190523-09:14:11.300|10=139|
 IN 20190523-09:14:41.275845511 8=FIX.4.4|9=0065|35=0|49=MAP_BLP_BETA|56=MAP_STLB_BETA|34=51|52=20190523-09:14:09|10=046|
OUT 20190523-09:14:41.301106278 8=FIX.4.4|9=69|35=0|49=MAP_STLB_BETA|56=MAP_BLP_BETA|34=51|52=20190523-09:14:41.301|10=144|
 IN 20190523-09:15:11.278000174 8=FIX.4.4|9=0065|35=0|49=MAP_BLP_BETA|56=MAP_STLB_BETA|34=52|52=20190523-09:14:39|10=050|
OUT 20190523-09:15:11.301207825 8=FIX.4.4|9=69|35=0|49=MAP_STLB_BETA|56=MAP_BLP_BETA|34=52|52=20190523-09:15:11.301|10=143|
 IN 20190523-09:15:41.277535535 8=FIX.4.4|9=0065|35=0|49=MAP_BLP_BETA|56=MAP_STLB_BETA|34=53|52=20190523-09:15:09|10=049|
OUT 20190523-09:15:41.301705744 8=FIX.4.4|9=69|35=0|49=MAP_STLB_BETA|56=MAP_BLP_BETA|34=53|52=20190523-09:15:41.301|10=147|
 IN 20190523-09:16:11.279878359 8=FIX.4.4|9=0065|35=0|49=MAP_BLP_BETA|56=MAP_STLB_BETA|34=54|52=20190523-09:15:39|10=053|
OUT 20190523-09:16:11.302106810 8=FIX.4.4|9=69|35=0|49=MAP_STLB_BETA|56=MAP_BLP_BETA|34=54|52=20190523-09:16:11.302|10=147|
 IN 20190523-09:16:41.283094141 8=FIX.4.4|9=0065|35=0|49=MAP_BLP_BETA|56=MAP_STLB_BETA|34=55|52=20190523-09:16:09|10=052|
OUT 20190523-09:16:41.302297103 8=FIX.4.4|9=69|35=0|49=MAP_STLB_BETA|56=MAP_BLP_BETA|34=55|52=20190523-09:16:41.302|10=151|
 IN 20190523-09:17:11.274412766 8=FIX.4.4|9=0065|35=0|49=MAP_BLP_BETA|56=MAP_STLB_BETA|34=56|52=20190523-09:16:39|10=056|
OUT 20190523-09:17:11.302597903 8=FIX.4.4|9=69|35=0|49=MAP_STLB_BETA|56=MAP_BLP_BETA|34=56|52=20190523-09:17:11.302|10=150|
 IN 20190523-09:17:41.276766683 8=FIX.4.4|9=0065|35=0|49=MAP_BLP_BETA|56=MAP_STLB_BETA|34=57|52=20190523-09:17:09|10=055|
OUT 20190523-09:17:41.302880356 8=FIX.4.4|9=69|35=0|49=MAP_STLB_BETA|56=MAP_BLP_BETA|34=57|52=20190523-09:17:41.302|10=154|
 IN 20190523-09:18:11.277219802 8=FIX.4.4|9=0065|35=0|49=MAP_BLP_BETA|56=MAP_STLB_BETA|34=58|52=20190523-09:17:39|10=059|
OUT 20190523-09:18:11.303232355 8=FIX.4.4|9=69|35=0|49=MAP_STLB_BETA|56=MAP_BLP_BETA|34=58|52=20190523-09:18:11.303|10=154|
 IN 20190523-09:18:41.279026306 8=FIX.4.4|9=0065|35=0|49=MAP_BLP_BETA|56=MAP_STLB_BETA|34=59|52=20190523-09:18:09|10=058|
OUT 20190523-09:18:41.303461048 8=FIX.4.4|9=69|35=0|49=MAP_STLB_BETA|56=MAP_BLP_BETA|34=59|52=20190523-09:18:41.303|10=158|
 IN 20190523-09:19:11.281545343 8=FIX.4.4|9=0065|35=0|49=MAP_BLP_BETA|56=MAP_STLB_BETA|34=60|52=20190523-09:18:39|10=053|
OUT 20190523-09:19:11.303708515 8=FIX.4.4|9=69|35=0|49=MAP_STLB_BETA|56=MAP_BLP_BETA|34=60|52=20190523-09:19:11.303|10=148|
 IN 20190523-09:19:41.280138625 8=FIX.4.4|9=0065|35=0|49=MAP_BLP_BETA|56=MAP_STLB_BETA|34=61|52=20190523-09:19:09|10=052|
OUT 20190523-09:19:41.315257513 8=FIX.4.4|9=69|35=0|49=MAP_STLB_BETA|56=MAP_BLP_BETA|34=61|52=20190523-09:19:41.315|10=155|
 IN 20190523-09:20:11.282099156 8=FIX.4.4|9=0065|35=0|49=MAP_BLP_BETA|56=MAP_STLB_BETA|34=62|52=20190523-09:19:39|10=056|
OUT 20190523-09:20:11.315235327 8=FIX.4.4|9=69|35=0|49=MAP_STLB_BETA|56=MAP_BLP_BETA|34=62|52=20190523-09:20:11.315|10=145|
 IN 20190523-09:20:41.273648607 8=FIX.4.4|9=0065|35=0|49=MAP_BLP_BETA|56=MAP_STLB_BETA|34=63|52=20190523-09:20:09|10=046|
OUT 20190523-09:20:41.315727699 8=FIX.4.4|9=69|35=0|49=MAP_STLB_BETA|56=MAP_BLP_BETA|34=63|52=20190523-09:20:41.315|10=149|
 IN 20190523-09:21:11.275147058 8=FIX.4.4|9=0065|35=0|49=MAP_BLP_BETA|56=MAP_STLB_BETA|34=64|52=20190523-09:20:39|10=050|
OUT 20190523-09:21:11.315993512 8=FIX.4.4|9=69|35=0|49=MAP_STLB_BETA|56=MAP_BLP_BETA|34=64|52=20190523-09:21:11.315|10=148|
 IN 20190523-09:21:41.276463323 8=FIX.4.4|9=0065|35=0|49=MAP_BLP_BETA|56=MAP_STLB_BETA|34=65|52=20190523-09:21:09|10=049|
OUT 20190523-09:21:41.316358312 8=FIX.4.4|9=69|35=0|49=MAP_STLB_BETA|56=MAP_BLP_BETA|34=65|52=20190523-09:21:41.316|10=153|
 IN 20190523-09:22:11.277891801 8=FIX.4.4|9=0065|35=0|49=MAP_BLP_BETA|56=MAP_STLB_BETA|34=66|52=20190523-09:21:39|10=053|
OUT 20190523-09:22:11.316857511 8=FIX.4.4|9=69|35=0|49=MAP_STLB_BETA|56=MAP_BLP_BETA|34=66|52=20190523-09:22:11.316|10=152|
 IN 20190523-09:22:41.280169345 8=FIX.4.4|9=0065|35=0|49=MAP_BLP_BETA|56=MAP_STLB_BETA|34=67|52=20190523-09:22:09|10=052|
OUT 20190523-09:22:41.317064018 8=FIX.4.4|9=69|35=0|49=MAP_STLB_BETA|56=MAP_BLP_BETA|34=67|52=20190523-09:22:41.317|10=157|
 IN 20190523-09:23:11.273145567 8=FIX.4.4|9=0065|35=0|49=MAP_BLP_BETA|56=MAP_STLB_BETA|34=68|52=20190523-09:22:39|10=056|
OUT 20190523-09:23:11.317402791 8=FIX.4.4|9=69|35=0|49=MAP_STLB_BETA|56=MAP_BLP_BETA|34=68|52=20190523-09:23:11.317|10=156|
 IN 20190523-09:23:41.275682524 8=FIX.4.4|9=0065|35=0|49=MAP_BLP_BETA|56=MAP_STLB_BETA|34=69|52=20190523-09:23:09|10=055|
OUT 20190523-09:23:41.317730044 8=FIX.4.4|9=69|35=0|49=MAP_STLB_BETA|56=MAP_BLP_BETA|34=69|52=20190523-09:23:41.317|10=160|
 IN 20190523-09:24:11.278439214 8=FIX.4.4|9=0065|35=0|49=MAP_BLP_BETA|56=MAP_STLB_BETA|34=70|52=20190523-09:23:39|10=050|
OUT 20190523-09:24:11.318002683 8=FIX.4.4|9=69|35=0|49=MAP_STLB_BETA|56=MAP_BLP_BETA|34=70|52=20190523-09:24:11.318|10=151|
 IN 20190523-09:24:41.279742679 8=FIX.4.4|9=0065|35=0|49=MAP_BLP_BETA|56=MAP_STLB_BETA|34=71|52=20190523-09:24:09|10=049|
OUT 20190523-09:24:41.318139643 8=FIX.4.4|9=69|35=0|49=MAP_STLB_BETA|56=MAP_BLP_BETA|34=71|52=20190523-09:24:41.318|10=155|
 IN 20190523-09:25:11.271520396 8=FIX.4.4|9=0065|35=0|49=MAP_BLP_BETA|56=MAP_STLB_BETA|34=72|52=20190523-09:24:39|10=053|
OUT 20190523-09:25:11.318576549 8=FIX.4.4|9=69|35=0|49=MAP_STLB_BETA|56=MAP_BLP_BETA|34=72|52=20190523-09:25:11.318|10=154|
 IN 20190523-09:25:41.280654464 8=FIX.4.4|9=0065|35=0|49=MAP_BLP_BETA|56=MAP_STLB_BETA|34=73|52=20190523-09:25:09|10=052|
OUT 20190523-09:25:41.318702416 8=FIX.4.4|9=69|35=0|49=MAP_STLB_BETA|56=MAP_BLP_BETA|34=73|52=20190523-09:25:41.318|10=158|
 IN 20190523-09:26:11.284549073 8=FIX.4.4|9=0065|35=0|49=MAP_BLP_BETA|56=MAP_STLB_BETA|34=74|52=20190523-09:25:39|10=056|
OUT 20190523-09:26:11.319176868 8=FIX.4.4|9=69|35=0|49=MAP_STLB_BETA|56=MAP_BLP_BETA|34=74|52=20190523-09:26:11.319|10=158|
 IN 20190523-09:26:41.285834618 8=FIX.4.4|9=0065|35=0|49=MAP_BLP_BETA|56=MAP_STLB_BETA|34=75|52=20190523-09:26:09|10=055|
OUT 20190523-09:26:41.319364175 8=FIX.4.4|9=69|35=0|49=MAP_STLB_BETA|56=MAP_BLP_BETA|34=75|52=20190523-09:26:41.319|10=162|
 IN 20190523-09:27:11.285857231 8=FIX.4.4|9=0065|35=0|49=MAP_BLP_BETA|56=MAP_STLB_BETA|34=76|52=20190523-09:26:39|10=059|
OUT 20190523-09:27:11.319628708 8=FIX.4.4|9=69|35=0|49=MAP_STLB_BETA|56=MAP_BLP_BETA|34=76|52=20190523-09:27:11.319|10=161|
 IN 20190523-09:27:41.287270349 8=FIX.4.4|9=0065|35=0|49=MAP_BLP_BETA|56=MAP_STLB_BETA|34=77|52=20190523-09:27:09|10=058|
OUT 20190523-09:27:41.319866361 8=FIX.4.4|9=69|35=0|49=MAP_STLB_BETA|56=MAP_BLP_BETA|34=77|52=20190523-09:27:41.319|10=165|
 IN 20190523-09:28:11.287992268 8=FIX.4.4|9=0065|35=0|49=MAP_BLP_BETA|56=MAP_STLB_BETA|34=78|52=20190523-09:27:39|10=062|
OUT 20190523-09:28:11.320373240 8=FIX.4.4|9=69|35=0|49=MAP_STLB_BETA|56=MAP_BLP_BETA|34=78|52=20190523-09:28:11.320|10=156|
 IN 20190523-09:28:41.289641760 8=FIX.4.4|9=0065|35=0|49=MAP_BLP_BETA|56=MAP_STLB_BETA|34=79|52=20190523-09:28:09|10=061|
OUT 20190523-09:28:41.320539213 8=FIX.4.4|9=69|35=0|49=MAP_STLB_BETA|56=MAP_BLP_BETA|34=79|52=20190523-09:28:41.320|10=160|
 IN 20190523-09:29:11.282686248 8=FIX.4.4|9=0065|35=0|49=MAP_BLP_BETA|56=MAP_STLB_BETA|34=80|52=20190523-09:28:39|10=056|
OUT 20190523-09:29:11.320658680 8=FIX.4.4|9=69|35=0|49=MAP_STLB_BETA|56=MAP_BLP_BETA|34=80|52=20190523-09:29:11.320|10=150|
 IN 20190523-09:29:41.283780647 8=FIX.4.4|9=0065|35=0|49=MAP_BLP_BETA|56=MAP_STLB_BETA|34=81|52=20190523-09:29:09|10=055|
OUT 20190523-09:29:41.321008546 8=FIX.4.4|9=69|35=0|49=MAP_STLB_BETA|56=MAP_BLP_BETA|34=81|52=20190523-09:29:41.321|10=155|
 IN 20190523-09:30:11.287508429 8=FIX.4.4|9=0065|35=0|49=MAP_BLP_BETA|56=MAP_STLB_BETA|34=82|52=20190523-09:29:39|10=059|
OUT 20190523-09:30:11.321088333 8=FIX.4.4|9=69|35=0|49=MAP_STLB_BETA|56=MAP_BLP_BETA|34=82|52=20190523-09:30:11.321|10=145|
 IN 20190523-09:30:41.287624055 8=FIX.4.4|9=0065|35=0|49=MAP_BLP_BETA|56=MAP_STLB_BETA|34=83|52=20190523-09:30:09|10=049|
OUT 20190523-09:30:41.321588812 8=FIX.4.4|9=69|35=0|49=MAP_STLB_BETA|56=MAP_BLP_BETA|34=83|52=20190523-09:30:41.321|10=149|
 IN 20190523-09:31:11.279829292 8=FIX.4.4|9=0065|35=0|49=MAP_BLP_BETA|56=MAP_STLB_BETA|34=84|52=20190523-09:30:39|10=053|
OUT 20190523-09:31:11.322766837 8=FIX.4.4|9=69|35=0|49=MAP_STLB_BETA|56=MAP_BLP_BETA|34=84|52=20190523-09:31:11.322|10=149|
 IN 20190523-09:31:41.282844542 8=FIX.4.4|9=0065|35=0|49=MAP_BLP_BETA|56=MAP_STLB_BETA|34=85|52=20190523-09:31:09|10=052|
OUT 20190523-09:31:41.323213130 8=FIX.4.4|9=69|35=0|49=MAP_STLB_BETA|56=MAP_BLP_BETA|34=85|52=20190523-09:31:41.323|10=154|
 IN 20190523-09:32:11.282688808 8=FIX.4.4|9=0065|35=0|49=MAP_BLP_BETA|56=MAP_STLB_BETA|34=86|52=20190523-09:31:39|10=056|
OUT 20190523-09:32:11.323607369 8=FIX.4.4|9=69|35=0|49=MAP_STLB_BETA|56=MAP_BLP_BETA|34=86|52=20190523-09:32:11.323|10=153|
 IN 20190523-09:32:41.286707577 8=FIX.4.4|9=0065|35=0|49=MAP_BLP_BETA|56=MAP_STLB_BETA|34=87|52=20190523-09:32:09|10=055|
OUT 20190523-09:32:41.323847582 8=FIX.4.4|9=69|35=0|49=MAP_STLB_BETA|56=MAP_BLP_BETA|34=87|52=20190523-09:32:41.323|10=157|
 IN 20190523-09:33:11.284923686 8=FIX.4.4|9=0065|35=0|49=MAP_BLP_BETA|56=MAP_STLB_BETA|34=88|52=20190523-09:32:39|10=059|
OUT 20190523-09:33:11.324272969 8=FIX.4.4|9=69|35=0|49=MAP_STLB_BETA|56=MAP_BLP_BETA|34=88|52=20190523-09:33:11.324|10=157|
 IN 20190523-09:33:41.277878575 8=FIX.4.4|9=0065|35=0|49=MAP_BLP_BETA|56=MAP_STLB_BETA|34=89|52=20190523-09:33:09|10=058|
OUT 20190523-09:33:41.324827208 8=FIX.4.4|9=69|35=0|49=MAP_STLB_BETA|56=MAP_BLP_BETA|34=89|52=20190523-09:33:41.324|10=161|
 IN 20190523-09:34:11.279953879 8=FIX.4.4|9=0065|35=0|49=MAP_BLP_BETA|56=MAP_STLB_BETA|34=90|52=20190523-09:33:39|10=053|
OUT 20190523-09:34:11.325169394 8=FIX.4.4|9=69|35=0|49=MAP_STLB_BETA|56=MAP_BLP_BETA|34=90|52=20190523-09:34:11.325|10=152|
 IN 20190523-09:34:41.279400493 8=FIX.4.4|9=0065|35=0|49=MAP_BLP_BETA|56=MAP_STLB_BETA|34=91|52=20190523-09:34:09|10=052|
OUT 20190523-09:34:41.325399367 8=FIX.4.4|9=69|35=0|49=MAP_STLB_BETA|56=MAP_BLP_BETA|34=91|52=20190523-09:34:41.325|10=156|
 IN 20190523-09:35:11.281814143 8=FIX.4.4|9=0065|35=0|49=MAP_BLP_BETA|56=MAP_STLB_BETA|34=92|52=20190523-09:34:39|10=056|
OUT 20190523-09:35:11.325619953 8=FIX.4.4|9=69|35=0|49=MAP_STLB_BETA|56=MAP_BLP_BETA|34=92|52=20190523-09:35:11.325|10=155|
 IN 20190523-09:35:41.280995371 8=FIX.4.4|9=0065|35=0|49=MAP_BLP_BETA|56=MAP_STLB_BETA|34=93|52=20190523-09:35:09|10=055|
OUT 20190523-09:35:41.326105500 8=FIX.4.4|9=69|35=0|49=MAP_STLB_BETA|56=MAP_BLP_BETA|34=93|52=20190523-09:35:41.326|10=160|
 IN 20190523-09:36:11.287715789 8=FIX.4.4|9=0065|35=0|49=MAP_BLP_BETA|56=MAP_STLB_BETA|34=94|52=20190523-09:35:39|10=059|
OUT 20190523-09:36:11.326298779 8=FIX.4.4|9=69|35=0|49=MAP_STLB_BETA|56=MAP_BLP_BETA|34=94|52=20190523-09:36:11.326|10=159|
 IN 20190523-09:36:41.278189188 8=FIX.4.4|9=0065|35=0|49=MAP_BLP_BETA|56=MAP_STLB_BETA|34=95|52=20190523-09:36:09|10=058|
OUT 20190523-09:36:41.326738672 8=FIX.4.4|9=69|35=0|49=MAP_STLB_BETA|56=MAP_BLP_BETA|34=95|52=20190523-09:36:41.326|10=163|
 IN 20190523-09:37:11.277213829 8=FIX.4.4|9=0065|35=0|49=MAP_BLP_BETA|56=MAP_STLB_BETA|34=96|52=20190523-09:36:39|10=062|
OUT 20190523-09:37:11.327098778 8=FIX.4.4|9=69|35=0|49=MAP_STLB_BETA|56=MAP_BLP_BETA|34=96|52=20190523-09:37:11.327|10=163|
 IN 20190523-09:37:41.281581610 8=FIX.4.4|9=0065|35=0|49=MAP_BLP_BETA|56=MAP_STLB_BETA|34=97|52=20190523-09:37:09|10=061|
OUT 20190523-09:37:41.327263471 8=FIX.4.4|9=69|35=0|49=MAP_STLB_BETA|56=MAP_BLP_BETA|34=97|52=20190523-09:37:41.327|10=167|
 IN 20190523-09:38:11.281326463 8=FIX.4.4|9=0065|35=0|49=MAP_BLP_BETA|56=MAP_STLB_BETA|34=98|52=20190523-09:37:39|10=065|
OUT 20190523-09:38:11.327373551 8=FIX.4.4|9=69|35=0|49=MAP_STLB_BETA|56=MAP_BLP_BETA|34=98|52=20190523-09:38:11.327|10=166|
 IN 20190523-09:38:41.282908968 8=FIX.4.4|9=0065|35=0|49=MAP_BLP_BETA|56=MAP_STLB_BETA|34=99|52=20190523-09:38:09|10=064|
OUT 20190523-09:38:41.328190617 8=FIX.4.4|9=69|35=0|49=MAP_STLB_BETA|56=MAP_BLP_BETA|34=99|52=20190523-09:38:41.328|10=171|
 IN 20190523-09:39:11.276258950 8=FIX.4.4|9=0066|35=0|49=MAP_BLP_BETA|56=MAP_STLB_BETA|34=100|52=20190523-09:38:39|10=099|
OUT 20190523-09:39:11.328196590 8=FIX.4.4|9=70|35=0|49=MAP_STLB_BETA|56=MAP_BLP_BETA|34=100|52=20190523-09:39:11.328|10=192|
 IN 20190523-09:39:41.276425350 8=FIX.4.4|9=0066|35=0|49=MAP_BLP_BETA|56=MAP_STLB_BETA|34=101|52=20190523-09:39:09|10=098|
OUT 20190523-09:39:41.328629656 8=FIX.4.4|9=70|35=0|49=MAP_STLB_BETA|56=MAP_BLP_BETA|34=101|52=20190523-09:39:41.328|10=196|
 IN 20190523-09:40:11.279448706 8=FIX.4.4|9=0066|35=0|49=MAP_BLP_BETA|56=MAP_STLB_BETA|34=102|52=20190523-09:39:39|10=102|
OUT 20190523-09:40:11.328678296 8=FIX.4.4|9=70|35=0|49=MAP_STLB_BETA|56=MAP_BLP_BETA|34=102|52=20190523-09:40:11.328|10=186|
 IN 20190523-09:40:41.279027160 8=FIX.4.4|9=0066|35=0|49=MAP_BLP_BETA|56=MAP_STLB_BETA|34=103|52=20190523-09:40:09|10=092|
OUT 20190523-09:40:41.329434349 8=FIX.4.4|9=70|35=0|49=MAP_STLB_BETA|56=MAP_BLP_BETA|34=103|52=20190523-09:40:41.329|10=191|
 IN 20190523-09:41:11.280934357 8=FIX.4.4|9=0066|35=0|49=MAP_BLP_BETA|56=MAP_STLB_BETA|34=104|52=20190523-09:40:39|10=096|
OUT 20190523-09:41:11.330465174 8=FIX.4.4|9=70|35=0|49=MAP_STLB_BETA|56=MAP_BLP_BETA|34=104|52=20190523-09:41:11.330|10=182|
 IN 20190523-09:41:41.284730832 8=FIX.4.4|9=0066|35=0|49=MAP_BLP_BETA|56=MAP_STLB_BETA|34=105|52=20190523-09:41:09|10=095|
OUT 20190523-09:41:41.330481814 8=FIX.4.4|9=70|35=0|49=MAP_STLB_BETA|56=MAP_BLP_BETA|34=105|52=20190523-09:41:41.330|10=186|
 IN 20190523-09:42:11.275356124 8=FIX.4.4|9=0066|35=0|49=MAP_BLP_BETA|56=MAP_STLB_BETA|34=106|52=20190523-09:41:39|10=099|
OUT 20190523-09:42:11.330545387 8=FIX.4.4|9=70|35=0|49=MAP_STLB_BETA|56=MAP_BLP_BETA|34=106|52=20190523-09:42:11.330|10=185|
 IN 20190523-09:42:41.277775748 8=FIX.4.4|9=0066|35=0|49=MAP_BLP_BETA|56=MAP_STLB_BETA|34=107|52=20190523-09:42:09|10=098|
OUT 20190523-09:42:41.330640107 8=FIX.4.4|9=70|35=0|49=MAP_STLB_BETA|56=MAP_BLP_BETA|34=107|52=20190523-09:42:41.330|10=189|
 IN 20190523-09:43:11.277571375 8=FIX.4.4|9=0066|35=0|49=MAP_BLP_BETA|56=MAP_STLB_BETA|34=108|52=20190523-09:42:39|10=102|
OUT 20190523-09:43:11.330714347 8=FIX.4.4|9=70|35=0|49=MAP_STLB_BETA|56=MAP_BLP_BETA|34=108|52=20190523-09:43:11.330|10=188|
 IN 20190523-09:43:41.279825452 8=FIX.4.4|9=0066|35=0|49=MAP_BLP_BETA|56=MAP_STLB_BETA|34=109|52=20190523-09:43:09|10=101|
OUT 20190523-09:43:41.331150826 8=FIX.4.4|9=70|35=0|49=MAP_STLB_BETA|56=MAP_BLP_BETA|34=109|52=20190523-09:43:41.331|10=193|
 IN 20190523-09:44:11.282769448 8=FIX.4.4|9=0066|35=0|49=MAP_BLP_BETA|56=MAP_STLB_BETA|34=110|52=20190523-09:43:39|10=096|
OUT 20190523-09:44:11.331678186 8=FIX.4.4|9=70|35=0|49=MAP_STLB_BETA|56=MAP_BLP_BETA|34=110|52=20190523-09:44:11.331|10=183|
 IN 20190523-09:44:41.281320064 8=FIX.4.4|9=0066|35=0|49=MAP_BLP_BETA|56=MAP_STLB_BETA|34=111|52=20190523-09:44:09|10=095|
OUT 20190523-09:44:41.331841172 8=FIX.4.4|9=70|35=0|49=MAP_STLB_BETA|56=MAP_BLP_BETA|34=111|52=20190523-09:44:41.331|10=187|
 IN 20190523-09:45:11.283337341 8=FIX.4.4|9=0066|35=0|49=MAP_BLP_BETA|56=MAP_STLB_BETA|34=112|52=20190523-09:44:39|10=099|
OUT 20190523-09:45:11.337028579 8=FIX.4.4|9=70|35=0|49=MAP_STLB_BETA|56=MAP_BLP_BETA|34=112|52=20190523-09:45:11.337|10=192|
 IN 20190523-09:45:41.273934900 8=FIX.4.4|9=0066|35=0|49=MAP_BLP_BETA|56=MAP_STLB_BETA|34=113|52=20190523-09:45:09|10=098|
OUT 20190523-09:45:41.337520525 8=FIX.4.4|9=70|35=0|49=MAP_STLB_BETA|56=MAP_BLP_BETA|34=113|52=20190523-09:45:41.337|10=196|
 IN 20190523-09:46:11.276108337 8=FIX.4.4|9=0066|35=0|49=MAP_BLP_BETA|56=MAP_STLB_BETA|34=114|52=20190523-09:45:39|10=102|
OUT 20190523-09:46:11.338543244 8=FIX.4.4|9=70|35=0|49=MAP_STLB_BETA|56=MAP_BLP_BETA|34=114|52=20190523-09:46:11.338|10=196|
 IN 20190523-09:46:41.278810413 8=FIX.4.4|9=0066|35=0|49=MAP_BLP_BETA|56=MAP_STLB_BETA|34=115|52=20190523-09:46:09|10=101|
OUT 20190523-09:46:41.338550924 8=FIX.4.4|9=70|35=0|49=MAP_STLB_BETA|56=MAP_BLP_BETA|34=115|52=20190523-09:46:41.338|10=200|
 IN 20190523-09:47:11.279586092 8=FIX.4.4|9=0066|35=0|49=MAP_BLP_BETA|56=MAP_STLB_BETA|34=116|52=20190523-09:46:39|10=105|
OUT 20190523-09:47:11.338778763 8=FIX.4.4|9=70|35=0|49=MAP_STLB_BETA|56=MAP_BLP_BETA|34=116|52=20190523-09:47:11.338|10=199|
 IN 20190523-09:47:41.281609770 8=FIX.4.4|9=0066|35=0|49=MAP_BLP_BETA|56=MAP_STLB_BETA|34=117|52=20190523-09:47:09|10=104|
OUT 20190523-09:47:41.339071883 8=FIX.4.4|9=70|35=0|49=MAP_STLB_BETA|56=MAP_BLP_BETA|34=117|52=20190523-09:47:41.339|10=204|
 IN 20190523-09:48:11.282330409 8=FIX.4.4|9=0066|35=0|49=MAP_BLP_BETA|56=MAP_STLB_BETA|34=118|52=20190523-09:47:39|10=108|
OUT 20190523-09:48:11.339152523 8=FIX.4.4|9=70|35=0|49=MAP_STLB_BETA|56=MAP_BLP_BETA|34=118|52=20190523-09:48:11.339|10=203|
 IN 20190523-09:48:41.275067272 8=FIX.4.4|9=0066|35=0|49=MAP_BLP_BETA|56=MAP_STLB_BETA|34=119|52=20190523-09:48:09|10=107|
OUT 20190523-09:48:41.339309963 8=FIX.4.4|9=70|35=0|49=MAP_STLB_BETA|56=MAP_BLP_BETA|34=119|52=20190523-09:48:41.339|10=207|
 IN 20190523-09:49:11.278222894 8=FIX.4.4|9=0066|35=0|49=MAP_BLP_BETA|56=MAP_STLB_BETA|34=120|52=20190523-09:48:39|10=102|
OUT 20190523-09:49:11.339298443 8=FIX.4.4|9=70|35=0|49=MAP_STLB_BETA|56=MAP_BLP_BETA|34=120|52=20190523-09:49:11.339|10=197|
 IN 20190523-09:49:41.278331694 8=FIX.4.4|9=0066|35=0|49=MAP_BLP_BETA|56=MAP_STLB_BETA|34=121|52=20190523-09:49:09|10=101|
OUT 20190523-09:49:41.339678602 8=FIX.4.4|9=70|35=0|49=MAP_STLB_BETA|56=MAP_BLP_BETA|34=121|52=20190523-09:49:41.339|10=201|
 IN 20190523-09:50:11.279955159 8=FIX.4.4|9=0066|35=0|49=MAP_BLP_BETA|56=MAP_STLB_BETA|34=122|52=20190523-09:49:39|10=105|
OUT 20190523-09:50:11.340048522 8=FIX.4.4|9=70|35=0|49=MAP_STLB_BETA|56=MAP_BLP_BETA|34=122|52=20190523-09:50:11.340|10=183|
 IN 20190523-09:50:41.279958572 8=FIX.4.4|9=0066|35=0|49=MAP_BLP_BETA|56=MAP_STLB_BETA|34=123|52=20190523-09:50:09|10=095|
OUT 20190523-09:50:41.340447881 8=FIX.4.4|9=70|35=0|49=MAP_STLB_BETA|56=MAP_BLP_BETA|34=123|52=20190523-09:50:41.340|10=187|
 IN 20190523-09:51:11.272634421 8=FIX.4.4|9=0066|35=0|49=MAP_BLP_BETA|56=MAP_STLB_BETA|34=124|52=20190523-09:50:39|10=099|
OUT 20190523-09:51:11.341090440 8=FIX.4.4|9=70|35=0|49=MAP_STLB_BETA|56=MAP_BLP_BETA|34=124|52=20190523-09:51:11.341|10=187|
 IN 20190523-09:51:41.275603164 8=FIX.4.4|9=0066|35=0|49=MAP_BLP_BETA|56=MAP_STLB_BETA|34=125|52=20190523-09:51:09|10=098|
OUT 20190523-09:51:41.341087880 8=FIX.4.4|9=70|35=0|49=MAP_STLB_BETA|56=MAP_BLP_BETA|34=125|52=20190523-09:51:41.341|10=191|
 IN 20190523-09:52:11.275795591 8=FIX.4.4|9=0066|35=0|49=MAP_BLP_BETA|56=MAP_STLB_BETA|34=126|52=20190523-09:51:39|10=102|
OUT 20190523-09:52:11.341355827 8=FIX.4.4|9=70|35=0|49=MAP_STLB_BETA|56=MAP_BLP_BETA|34=126|52=20190523-09:52:11.341|10=190|
 IN 20190523-09:52:41.279011373 8=FIX.4.4|9=0066|35=0|49=MAP_BLP_BETA|56=MAP_STLB_BETA|34=127|52=20190523-09:52:09|10=101|
OUT 20190523-09:52:41.341618226 8=FIX.4.4|9=70|35=0|49=MAP_STLB_BETA|56=MAP_BLP_BETA|34=127|52=20190523-09:52:41.341|10=194|
 IN 20190523-09:53:11.279145773 8=FIX.4.4|9=0066|35=0|49=MAP_BLP_BETA|56=MAP_STLB_BETA|34=128|52=20190523-09:52:39|10=105|
OUT 20190523-09:53:11.341878066 8=FIX.4.4|9=70|35=0|49=MAP_STLB_BETA|56=MAP_BLP_BETA|34=128|52=20190523-09:53:11.341|10=193|
 IN 20190523-09:53:41.271603169 8=FIX.4.4|9=0066|35=0|49=MAP_BLP_BETA|56=MAP_STLB_BETA|34=129|52=20190523-09:53:09|10=104|
OUT 20190523-09:53:41.342365745 8=FIX.4.4|9=70|35=0|49=MAP_STLB_BETA|56=MAP_BLP_BETA|34=129|52=20190523-09:53:41.342|10=198|
 IN 20190523-09:54:11.274790792 8=FIX.4.4|9=0066|35=0|49=MAP_BLP_BETA|56=MAP_STLB_BETA|34=130|52=20190523-09:53:39|10=099|
OUT 20190523-09:54:11.342458759 8=FIX.4.4|9=70|35=0|49=MAP_STLB_BETA|56=MAP_BLP_BETA|34=130|52=20190523-09:54:11.342|10=188|
 IN 20190523-09:54:41.275121458 8=FIX.4.4|9=0066|35=0|49=MAP_BLP_BETA|56=MAP_STLB_BETA|34=131|52=20190523-09:54:09|10=098|
OUT 20190523-09:54:41.342466439 8=FIX.4.4|9=70|35=0|49=MAP_STLB_BETA|56=MAP_BLP_BETA|34=131|52=20190523-09:54:41.342|10=192|
 IN 20190523-09:55:11.277943001 8=FIX.4.4|9=0066|35=0|49=MAP_BLP_BETA|56=MAP_STLB_BETA|34=132|52=20190523-09:54:39|10=102|
OUT 20190523-09:55:11.342748465 8=FIX.4.4|9=70|35=0|49=MAP_STLB_BETA|56=MAP_BLP_BETA|34=132|52=20190523-09:55:11.342|10=191|
 IN 20190523-09:55:41.278411907 8=FIX.4.4|9=0066|35=0|49=MAP_BLP_BETA|56=MAP_STLB_BETA|34=133|52=20190523-09:55:09|10=101|
OUT 20190523-09:55:41.343042438 8=FIX.4.4|9=70|35=0|49=MAP_STLB_BETA|56=MAP_BLP_BETA|34=133|52=20190523-09:55:41.343|10=196|
 IN 20190523-09:56:11.279801985 8=FIX.4.4|9=0066|35=0|49=MAP_BLP_BETA|56=MAP_STLB_BETA|34=134|52=20190523-09:55:39|10=105|
OUT 20190523-09:56:11.343533104 8=FIX.4.4|9=70|35=0|49=MAP_STLB_BETA|56=MAP_BLP_BETA|34=134|52=20190523-09:56:11.343|10=195|
 IN 20190523-09:56:41.272840074 8=FIX.4.4|9=0066|35=0|49=MAP_BLP_BETA|56=MAP_STLB_BETA|34=135|52=20190523-09:56:09|10=104|
OUT 20190523-09:56:41.344011397 8=FIX.4.4|9=70|35=0|49=MAP_STLB_BETA|56=MAP_BLP_BETA|34=135|52=20190523-09:56:41.344|10=200|
 IN 20190523-09:57:11.272162955 8=FIX.4.4|9=0066|35=0|49=MAP_BLP_BETA|56=MAP_STLB_BETA|34=136|52=20190523-09:56:39|10=108|
OUT 20190523-09:57:11.344162010 8=FIX.4.4|9=70|35=0|49=MAP_STLB_BETA|56=MAP_BLP_BETA|34=136|52=20190523-09:57:11.344|10=199|
 IN 20190523-09:57:41.273513353 8=FIX.4.4|9=0066|35=0|49=MAP_BLP_BETA|56=MAP_STLB_BETA|34=137|52=20190523-09:57:09|10=107|
OUT 20190523-09:57:41.344268676 8=FIX.4.4|9=70|35=0|49=MAP_STLB_BETA|56=MAP_BLP_BETA|34=137|52=20190523-09:57:41.344|10=203|
 IN 20190523-09:58:11.274700765 8=FIX.4.4|9=0066|35=0|49=MAP_BLP_BETA|56=MAP_STLB_BETA|34=138|52=20190523-09:57:39|10=111|
OUT 20190523-09:58:11.344328836 8=FIX.4.4|9=70|35=0|49=MAP_STLB_BETA|56=MAP_BLP_BETA|34=138|52=20190523-09:58:11.344|10=202|
 IN 20190523-09:58:41.275747377 8=FIX.4.4|9=0066|35=0|49=MAP_BLP_BETA|56=MAP_STLB_BETA|34=139|52=20190523-09:58:09|10=110|
OUT 20190523-09:58:41.344778116 8=FIX.4.4|9=70|35=0|49=MAP_STLB_BETA|56=MAP_BLP_BETA|34=139|52=20190523-09:58:41.344|10=206|
 IN 20190523-09:59:11.278723800 8=FIX.4.4|9=0066|35=0|49=MAP_BLP_BETA|56=MAP_STLB_BETA|34=140|52=20190523-09:58:39|10=105|
OUT 20190523-09:59:11.344864729 8=FIX.4.4|9=70|35=0|49=MAP_STLB_BETA|56=MAP_BLP_BETA|34=140|52=20190523-09:59:11.344|10=196|
 IN 20190523-09:59:41.270629944 8=FIX.4.4|9=0066|35=0|49=MAP_BLP_BETA|56=MAP_STLB_BETA|34=141|52=20190523-09:59:09|10=104|
OUT 20190523-09:59:41.344893742 8=FIX.4.4|9=70|35=0|49=MAP_STLB_BETA|56=MAP_BLP_BETA|34=141|52=20190523-09:59:41.344|10=200|
 IN 20190523-10:00:11.272307595 8=FIX.4.4|9=0066|35=0|49=MAP_BLP_BETA|56=MAP_STLB_BETA|34=142|52=20190523-09:59:39|10=108|
OUT 20190523-10:00:11.345070382 8=FIX.4.4|9=70|35=0|49=MAP_STLB_BETA|56=MAP_BLP_BETA|34=142|52=20190523-10:00:11.345|10=177|
 IN 20190523-10:00:41.271789622 8=FIX.4.4|9=0066|35=0|49=MAP_BLP_BETA|56=MAP_STLB_BETA|34=143|52=20190523-10:00:09|10=084|
OUT 20190523-10:00:41.345166382 8=FIX.4.4|9=70|35=0|49=MAP_STLB_BETA|56=MAP_BLP_BETA|34=143|52=20190523-10:00:41.345|10=181|
 IN 20190523-10:01:11.274805299 8=FIX.4.4|9=0066|35=0|49=MAP_BLP_BETA|56=MAP_STLB_BETA|34=144|52=20190523-10:00:39|10=088|
OUT 20190523-10:01:11.345225688 8=FIX.4.4|9=70|35=0|49=MAP_STLB_BETA|56=MAP_BLP_BETA|34=144|52=20190523-10:01:11.345|10=180|
 IN 20190523-10:01:41.276739376 8=FIX.4.4|9=0066|35=0|49=MAP_BLP_BETA|56=MAP_STLB_BETA|34=145|52=20190523-10:01:09|10=087|
OUT 20190523-10:01:41.345390808 8=FIX.4.4|9=70|35=0|49=MAP_STLB_BETA|56=MAP_BLP_BETA|34=145|52=20190523-10:01:41.345|10=184|
 IN 20190523-10:02:11.276256390 8=FIX.4.4|9=0066|35=0|49=MAP_BLP_BETA|56=MAP_STLB_BETA|34=146|52=20190523-10:01:39|10=091|
OUT 20190523-10:02:11.346585047 8=FIX.4.4|9=70|35=0|49=MAP_STLB_BETA|56=MAP_BLP_BETA|34=146|52=20190523-10:02:11.346|10=184|
 IN 20190523-10:02:41.269496719 8=FIX.4.4|9=0066|35=0|49=MAP_BLP_BETA|56=MAP_STLB_BETA|34=147|52=20190523-10:02:09|10=090|
OUT 20190523-10:02:41.346926380 8=FIX.4.4|9=70|35=0|49=MAP_STLB_BETA|56=MAP_BLP_BETA|34=147|52=20190523-10:02:41.346|10=188|
 IN 20190523-10:03:11.269213412 8=FIX.4.4|9=0066|35=0|49=MAP_BLP_BETA|56=MAP_STLB_BETA|34=148|52=20190523-10:02:39|10=094|
OUT 20190523-10:03:11.347323179 8=FIX.4.4|9=70|35=0|49=MAP_STLB_BETA|56=MAP_BLP_BETA|34=148|52=20190523-10:03:11.347|10=188|
 IN 20190523-10:03:41.270737464 8=FIX.4.4|9=0066|35=0|49=MAP_BLP_BETA|56=MAP_STLB_BETA|34=149|52=20190523-10:03:09|10=093|
OUT 20190523-10:03:41.347434539 8=FIX.4.4|9=70|35=0|49=MAP_STLB_BETA|56=MAP_BLP_BETA|34=149|52=20190523-10:03:41.347|10=192|
 IN 20190523-10:04:11.274474206 8=FIX.4.4|9=0066|35=0|49=MAP_BLP_BETA|56=MAP_STLB_BETA|34=150|52=20190523-10:03:39|10=088|
OUT 20190523-10:04:11.347526272 8=FIX.4.4|9=70|35=0|49=MAP_STLB_BETA|56=MAP_BLP_BETA|34=150|52=20190523-10:04:11.347|10=182|
 IN 20190523-10:04:41.273042314 8=FIX.4.4|9=0066|35=0|49=MAP_BLP_BETA|56=MAP_STLB_BETA|34=151|52=20190523-10:04:09|10=087|
OUT 20190523-10:04:41.348515711 8=FIX.4.4|9=70|35=0|49=MAP_STLB_BETA|56=MAP_BLP_BETA|34=151|52=20190523-10:04:41.348|10=187|
 IN 20190523-10:05:11.275424818 8=FIX.4.4|9=0066|35=0|49=MAP_BLP_BETA|56=MAP_STLB_BETA|34=152|52=20190523-10:04:39|10=091|
OUT 20190523-10:05:11.348556244 8=FIX.4.4|9=70|35=0|49=MAP_STLB_BETA|56=MAP_BLP_BETA|34=152|52=20190523-10:05:11.348|10=186|
 IN 20190523-10:05:41.275308338 8=FIX.4.4|9=0066|35=0|49=MAP_BLP_BETA|56=MAP_STLB_BETA|34=153|52=20190523-10:05:09|10=090|
OUT 20190523-10:05:41.349099817 8=FIX.4.4|9=70|35=0|49=MAP_STLB_BETA|56=MAP_BLP_BETA|34=153|52=20190523-10:05:41.349|10=191|
 IN 20190523-10:06:11.268027281 8=FIX.4.4|9=0066|35=0|49=MAP_BLP_BETA|56=MAP_STLB_BETA|34=154|52=20190523-10:05:39|10=094|
OUT 20190523-10:06:11.350243709 8=FIX.4.4|9=70|35=0|49=MAP_STLB_BETA|56=MAP_BLP_BETA|34=154|52=20190523-10:06:11.350|10=182|
 IN 20190523-10:06:41.270356878 8=FIX.4.4|9=0066|35=0|49=MAP_BLP_BETA|56=MAP_STLB_BETA|34=155|52=20190523-10:06:09|10=093|
OUT 20190523-10:06:41.351201147 8=FIX.4.4|9=70|35=0|49=MAP_STLB_BETA|56=MAP_BLP_BETA|34=155|52=20190523-10:06:41.351|10=187|
 IN 20190523-10:07:11.271906102 8=FIX.4.4|9=0066|35=0|49=MAP_BLP_BETA|56=MAP_STLB_BETA|34=156|52=20190523-10:06:39|10=097|
OUT 20190523-10:07:11.351263867 8=FIX.4.4|9=70|35=0|49=MAP_STLB_BETA|56=MAP_BLP_BETA|34=156|52=20190523-10:07:11.351|10=186|
 IN 20190523-10:07:41.272182155 8=FIX.4.4|9=0066|35=0|49=MAP_BLP_BETA|56=MAP_STLB_BETA|34=157|52=20190523-10:07:09|10=096|
OUT 20190523-10:07:41.352149626 8=FIX.4.4|9=70|35=0|49=MAP_STLB_BETA|56=MAP_BLP_BETA|34=157|52=20190523-10:07:41.352|10=191|
 IN 20190523-10:08:11.278270254 8=FIX.4.4|9=0066|35=0|49=MAP_BLP_BETA|56=MAP_STLB_BETA|34=158|52=20190523-10:07:39|10=100|
OUT 20190523-10:08:11.352455546 8=FIX.4.4|9=70|35=0|49=MAP_STLB_BETA|56=MAP_BLP_BETA|34=158|52=20190523-10:08:11.352|10=190|
 IN 20190523-10:08:41.275851911 8=FIX.4.4|9=0066|35=0|49=MAP_BLP_BETA|56=MAP_STLB_BETA|34=159|52=20190523-10:08:09|10=099|
OUT 20190523-10:08:41.352658212 8=FIX.4.4|9=70|35=0|49=MAP_STLB_BETA|56=MAP_BLP_BETA|34=159|52=20190523-10:08:41.352|10=194|
 IN 20190523-10:09:11.267339068 8=FIX.4.4|9=0066|35=0|49=MAP_BLP_BETA|56=MAP_STLB_BETA|34=160|52=20190523-10:08:39|10=094|
OUT 20190523-10:09:11.352688932 8=FIX.4.4|9=70|35=0|49=MAP_STLB_BETA|56=MAP_BLP_BETA|34=160|52=20190523-10:09:11.352|10=184|
 IN 20190523-10:09:41.267725201 8=FIX.4.4|9=0066|35=0|49=MAP_BLP_BETA|56=MAP_STLB_BETA|34=161|52=20190523-10:09:09|10=093|
OUT 20190523-10:09:41.353145892 8=FIX.4.4|9=70|35=0|49=MAP_STLB_BETA|56=MAP_BLP_BETA|34=161|52=20190523-10:09:41.353|10=189|
 IN 20190523-10:10:11.272459062 8=FIX.4.4|9=0066|35=0|49=MAP_BLP_BETA|56=MAP_STLB_BETA|34=162|52=20190523-10:09:39|10=097|
OUT 20190523-10:10:11.353566158 8=FIX.4.4|9=70|35=0|49=MAP_STLB_BETA|56=MAP_BLP_BETA|34=162|52=20190523-10:10:11.353|10=179|
 IN 20190523-10:10:41.270866744 8=FIX.4.4|9=0066|35=0|49=MAP_BLP_BETA|56=MAP_STLB_BETA|34=163|52=20190523-10:10:09|10=087|
OUT 20190523-10:10:41.353665998 8=FIX.4.4|9=70|35=0|49=MAP_STLB_BETA|56=MAP_BLP_BETA|34=163|52=20190523-10:10:41.353|10=183|
 IN 20190523-10:11:11.272836234 8=FIX.4.4|9=0066|35=0|49=MAP_BLP_BETA|56=MAP_STLB_BETA|34=164|52=20190523-10:10:39|10=091|
OUT 20190523-10:11:11.353737251 8=FIX.4.4|9=70|35=0|49=MAP_STLB_BETA|56=MAP_BLP_BETA|34=164|52=20190523-10:11:11.353|10=182|
 IN 20190523-10:11:41.264861845 8=FIX.4.4|9=0066|35=0|49=MAP_BLP_BETA|56=MAP_STLB_BETA|34=165|52=20190523-10:11:09|10=090|
OUT 20190523-10:11:41.354023117 8=FIX.4.4|9=70|35=0|49=MAP_STLB_BETA|56=MAP_BLP_BETA|34=165|52=20190523-10:11:41.354|10=187|
 IN 20190523-10:12:11.265126804 8=FIX.4.4|9=0066|35=0|49=MAP_BLP_BETA|56=MAP_STLB_BETA|34=166|52=20190523-10:11:39|10=094|
OUT 20190523-10:12:11.354257357 8=FIX.4.4|9=70|35=0|49=MAP_STLB_BETA|56=MAP_BLP_BETA|34=166|52=20190523-10:12:11.354|10=186|
 IN 20190523-10:12:41.267863441 8=FIX.4.4|9=0066|35=0|49=MAP_BLP_BETA|56=MAP_STLB_BETA|34=167|52=20190523-10:12:09|10=093|
OUT 20190523-10:12:41.354511223 8=FIX.4.4|9=70|35=0|49=MAP_STLB_BETA|56=MAP_BLP_BETA|34=167|52=20190523-10:12:41.354|10=190|
 IN 20190523-10:13:11.266978535 8=FIX.4.4|9=0066|35=0|49=MAP_BLP_BETA|56=MAP_STLB_BETA|34=168|52=20190523-10:12:39|10=097|
OUT 20190523-10:13:11.354756130 8=FIX.4.4|9=70|35=0|49=MAP_STLB_BETA|56=MAP_BLP_BETA|34=168|52=20190523-10:13:11.354|10=189|
 IN 20190523-10:13:41.268869519 8=FIX.4.4|9=0066|35=0|49=MAP_BLP_BETA|56=MAP_STLB_BETA|34=169|52=20190523-10:13:09|10=096|
OUT 20190523-10:13:41.355000609 8=FIX.4.4|9=70|35=0|49=MAP_STLB_BETA|56=MAP_BLP_BETA|34=169|52=20190523-10:13:41.355|10=194|
 IN 20190523-10:14:11.271488823 8=FIX.4.4|9=0066|35=0|49=MAP_BLP_BETA|56=MAP_STLB_BETA|34=170|52=20190523-10:13:39|10=091|
OUT 20190523-10:14:11.355307382 8=FIX.4.4|9=70|35=0|49=MAP_STLB_BETA|56=MAP_BLP_BETA|34=170|52=20190523-10:14:11.355|10=184|
 IN 20190523-10:14:41.273038901 8=FIX.4.4|9=0066|35=0|49=MAP_BLP_BETA|56=MAP_STLB_BETA|34=171|52=20190523-10:14:09|10=090|
OUT 20190523-10:14:41.355325302 8=FIX.4.4|9=70|35=0|49=MAP_STLB_BETA|56=MAP_BLP_BETA|34=171|52=20190523-10:14:41.355|10=188|
 IN 20190523-10:15:11.264907498 8=FIX.4.4|9=0066|35=0|49=MAP_BLP_BETA|56=MAP_STLB_BETA|34=172|52=20190523-10:14:39|10=094|
OUT 20190523-10:15:11.355787808 8=FIX.4.4|9=70|35=0|49=MAP_STLB_BETA|56=MAP_BLP_BETA|34=172|52=20190523-10:15:11.355|10=187|
 IN 20190523-10:15:41.264130539 8=FIX.4.4|9=0066|35=0|49=MAP_BLP_BETA|56=MAP_STLB_BETA|34=173|52=20190523-10:15:09|10=093|
OUT 20190523-10:15:41.356099274 8=FIX.4.4|9=70|35=0|49=MAP_STLB_BETA|56=MAP_BLP_BETA|34=173|52=20190523-10:15:41.356|10=192|
 IN 20190523-10:16:11.267831867 8=FIX.4.4|9=0066|35=0|49=MAP_BLP_BETA|56=MAP_STLB_BETA|34=174|52=20190523-10:15:39|10=097|
OUT 20190523-10:16:11.356478581 8=FIX.4.4|9=70|35=0|49=MAP_STLB_BETA|56=MAP_BLP_BETA|34=174|52=20190523-10:16:11.356|10=191|
 IN 20190523-10:16:41.269692985 8=FIX.4.4|9=0066|35=0|49=MAP_BLP_BETA|56=MAP_STLB_BETA|34=175|52=20190523-10:16:09|10=096|
OUT 20190523-10:16:41.356620234 8=FIX.4.4|9=70|35=0|49=MAP_STLB_BETA|56=MAP_BLP_BETA|34=175|52=20190523-10:16:41.356|10=195|
 IN 20190523-10:17:11.269273146 8=FIX.4.4|9=0066|35=0|49=MAP_BLP_BETA|56=MAP_STLB_BETA|34=176|52=20190523-10:16:39|10=100|
OUT 20190523-10:17:11.356704287 8=FIX.4.4|9=70|35=0|49=MAP_STLB_BETA|56=MAP_BLP_BETA|34=176|52=20190523-10:17:11.356|10=194|
 IN 20190523-10:17:41.270961037 8=FIX.4.4|9=0066|35=0|49=MAP_BLP_BETA|56=MAP_STLB_BETA|34=177|52=20190523-10:17:09|10=099|
OUT 20190523-10:17:41.357004233 8=FIX.4.4|9=70|35=0|49=MAP_STLB_BETA|56=MAP_BLP_BETA|34=177|52=20190523-10:17:41.357|10=199|
 IN 20190523-10:18:11.271742262 8=FIX.4.4|9=0066|35=0|49=MAP_BLP_BETA|56=MAP_STLB_BETA|34=178|52=20190523-10:17:39|10=103|
OUT 20190523-10:18:11.357766259 8=FIX.4.4|9=70|35=0|49=MAP_STLB_BETA|56=MAP_BLP_BETA|34=178|52=20190523-10:18:11.357|10=198|
 IN 20190523-10:18:41.264750485 8=FIX.4.4|9=0066|35=0|49=MAP_BLP_BETA|56=MAP_STLB_BETA|34=179|52=20190523-10:18:09|10=102|
OUT 20190523-10:18:41.358219805 8=FIX.4.4|9=70|35=0|49=MAP_STLB_BETA|56=MAP_BLP_BETA|34=179|52=20190523-10:18:41.358|10=203|
 IN 20190523-10:19:11.267067708 8=FIX.4.4|9=0066|35=0|49=MAP_BLP_BETA|56=MAP_STLB_BETA|34=180|52=20190523-10:18:39|10=097|
OUT 20190523-10:19:11.358266738 8=FIX.4.4|9=70|35=0|49=MAP_STLB_BETA|56=MAP_BLP_BETA|34=180|52=20190523-10:19:11.358|10=193|
 IN 20190523-10:19:41.277225349 8=FIX.4.4|9=0066|35=0|49=MAP_BLP_BETA|56=MAP_STLB_BETA|34=181|52=20190523-10:19:09|10=096|
OUT 20190523-10:19:41.358465138 8=FIX.4.4|9=70|35=0|49=MAP_STLB_BETA|56=MAP_BLP_BETA|34=181|52=20190523-10:19:41.358|10=197|
 IN 20190523-10:20:11.269924665 8=FIX.4.4|9=0066|35=0|49=MAP_BLP_BETA|56=MAP_STLB_BETA|34=182|52=20190523-10:19:39|10=100|
OUT 20190523-10:20:11.358537245 8=FIX.4.4|9=70|35=0|49=MAP_STLB_BETA|56=MAP_BLP_BETA|34=182|52=20190523-10:20:11.358|10=187|
 IN 20190523-10:20:41.270223331 8=FIX.4.4|9=0066|35=0|49=MAP_BLP_BETA|56=MAP_STLB_BETA|34=183|52=20190523-10:20:09|10=090|
OUT 20190523-10:20:41.358532551 8=FIX.4.4|9=70|35=0|49=MAP_STLB_BETA|56=MAP_BLP_BETA|34=183|52=20190523-10:20:41.358|10=191|
 IN 20190523-10:21:11.262509208 8=FIX.4.4|9=0066|35=0|49=MAP_BLP_BETA|56=MAP_STLB_BETA|34=184|52=20190523-10:20:39|10=094|
OUT 20190523-10:21:11.358604231 8=FIX.4.4|9=70|35=0|49=MAP_STLB_BETA|56=MAP_BLP_BETA|34=184|52=20190523-10:21:11.358|10=190|
 IN 20190523-10:21:41.264138645 8=FIX.4.4|9=0066|35=0|49=MAP_BLP_BETA|56=MAP_STLB_BETA|34=185|52=20190523-10:21:09|10=093|
OUT 20190523-10:21:41.358773191 8=FIX.4.4|9=70|35=0|49=MAP_STLB_BETA|56=MAP_BLP_BETA|34=185|52=20190523-10:21:41.358|10=194|
 IN 20190523-10:22:11.265078591 8=FIX.4.4|9=0066|35=0|49=MAP_BLP_BETA|56=MAP_STLB_BETA|34=186|52=20190523-10:21:39|10=097|
OUT 20190523-10:22:11.359102151 8=FIX.4.4|9=70|35=0|49=MAP_STLB_BETA|56=MAP_BLP_BETA|34=186|52=20190523-10:22:11.359|10=194|
 IN 20190523-10:22:41.268949733 8=FIX.4.4|9=0066|35=0|49=MAP_BLP_BETA|56=MAP_STLB_BETA|34=187|52=20190523-10:22:09|10=096|
OUT 20190523-10:22:41.359194737 8=FIX.4.4|9=70|35=0|49=MAP_STLB_BETA|56=MAP_BLP_BETA|34=187|52=20190523-10:22:41.359|10=198|
 IN 20190523-10:23:11.267442748 8=FIX.4.4|9=0066|35=0|49=MAP_BLP_BETA|56=MAP_STLB_BETA|34=188|52=20190523-10:22:39|10=100|
OUT 20190523-10:23:11.359182791 8=FIX.4.4|9=70|35=0|49=MAP_STLB_BETA|56=MAP_BLP_BETA|34=188|52=20190523-10:23:11.359|10=197|
 IN 20190523-10:23:41.268530747 8=FIX.4.4|9=0066|35=0|49=MAP_BLP_BETA|56=MAP_STLB_BETA|34=189|52=20190523-10:23:09|10=099|
OUT 20190523-10:23:41.359555270 8=FIX.4.4|9=70|35=0|49=MAP_STLB_BETA|56=MAP_BLP_BETA|34=189|52=20190523-10:23:41.359|10=201|
 IN 20190523-10:24:11.261211716 8=FIX.4.4|9=0066|35=0|49=MAP_BLP_BETA|56=MAP_STLB_BETA|34=190|52=20190523-10:23:39|10=094|
OUT 20190523-10:24:11.359849243 8=FIX.4.4|9=70|35=0|49=MAP_STLB_BETA|56=MAP_BLP_BETA|34=190|52=20190523-10:24:11.359|10=191|
 IN 20190523-10:24:41.261820568 8=FIX.4.4|9=0066|35=0|49=MAP_BLP_BETA|56=MAP_STLB_BETA|34=191|52=20190523-10:24:09|10=093|
OUT 20190523-10:24:41.359929030 8=FIX.4.4|9=70|35=0|49=MAP_STLB_BETA|56=MAP_BLP_BETA|34=191|52=20190523-10:24:41.359|10=195|
 IN 20190523-10:25:11.264400618 8=FIX.4.4|9=0066|35=0|49=MAP_BLP_BETA|56=MAP_STLB_BETA|34=192|52=20190523-10:24:39|10=097|
OUT 20190523-10:25:11.360476442 8=FIX.4.4|9=70|35=0|49=MAP_STLB_BETA|56=MAP_BLP_BETA|34=192|52=20190523-10:25:11.360|10=186|
 IN 20190523-10:25:41.264604138 8=FIX.4.4|9=0066|35=0|49=MAP_BLP_BETA|56=MAP_STLB_BETA|34=193|52=20190523-10:25:09|10=096|
OUT 20190523-10:25:41.360778095 8=FIX.4.4|9=70|35=0|49=MAP_STLB_BETA|56=MAP_BLP_BETA|34=193|52=20190523-10:25:41.360|10=190|
 IN 20190523-10:26:11.267102268 8=FIX.4.4|9=0066|35=0|49=MAP_BLP_BETA|56=MAP_STLB_BETA|34=194|52=20190523-10:25:39|10=100|
OUT 20190523-10:26:11.360905242 8=FIX.4.4|9=70|35=0|49=MAP_STLB_BETA|56=MAP_BLP_BETA|34=194|52=20190523-10:26:11.360|10=189|
 IN 20190523-10:26:41.269471119 8=FIX.4.4|9=0066|35=0|49=MAP_BLP_BETA|56=MAP_STLB_BETA|34=195|52=20190523-10:26:09|10=099|
OUT 20190523-10:26:41.361193241 8=FIX.4.4|9=70|35=0|49=MAP_STLB_BETA|56=MAP_BLP_BETA|34=195|52=20190523-10:26:41.361|10=194|
 IN 20190523-10:27:11.278823213 8=FIX.4.4|9=0066|35=0|49=MAP_BLP_BETA|56=MAP_STLB_BETA|34=196|52=20190523-10:26:39|10=103|
OUT 20190523-10:27:11.361759001 8=FIX.4.4|9=70|35=0|49=MAP_STLB_BETA|56=MAP_BLP_BETA|34=196|52=20190523-10:27:11.361|10=193|
 IN 20190523-10:27:41.271987595 8=FIX.4.4|9=0066|35=0|49=MAP_BLP_BETA|56=MAP_STLB_BETA|34=197|52=20190523-10:27:09|10=102|
OUT 20190523-10:27:41.361837934 8=FIX.4.4|9=70|35=0|49=MAP_STLB_BETA|56=MAP_BLP_BETA|34=197|52=20190523-10:27:41.361|10=197|
 IN 20190523-10:28:11.271058743 8=FIX.4.4|9=0066|35=0|49=MAP_BLP_BETA|56=MAP_STLB_BETA|34=198|52=20190523-10:27:39|10=106|
OUT 20190523-10:28:11.361884867 8=FIX.4.4|9=70|35=0|49=MAP_STLB_BETA|56=MAP_BLP_BETA|34=198|52=20190523-10:28:11.361|10=196|
 IN 20190523-10:28:41.273258634 8=FIX.4.4|9=0066|35=0|49=MAP_BLP_BETA|56=MAP_STLB_BETA|34=199|52=20190523-10:28:09|10=105|
OUT 20190523-10:28:41.362507800 8=FIX.4.4|9=70|35=0|49=MAP_STLB_BETA|56=MAP_BLP_BETA|34=199|52=20190523-10:28:41.362|10=201|
 IN 20190523-10:29:11.275152178 8=FIX.4.4|9=0066|35=0|49=MAP_BLP_BETA|56=MAP_STLB_BETA|34=200|52=20190523-10:28:39|10=091|
OUT 20190523-10:29:11.362785559 8=FIX.4.4|9=70|35=0|49=MAP_STLB_BETA|56=MAP_BLP_BETA|34=200|52=20190523-10:29:11.362|10=182|
 IN 20190523-10:29:41.274961458 8=FIX.4.4|9=0066|35=0|49=MAP_BLP_BETA|56=MAP_STLB_BETA|34=201|52=20190523-10:29:09|10=090|
OUT 20190523-10:29:41.363100439 8=FIX.4.4|9=70|35=0|49=MAP_STLB_BETA|56=MAP_BLP_BETA|34=201|52=20190523-10:29:41.363|10=187|
 IN 20190523-10:30:11.277891375 8=FIX.4.4|9=0066|35=0|49=MAP_BLP_BETA|56=MAP_STLB_BETA|34=202|52=20190523-10:29:39|10=094|
OUT 20190523-10:30:11.363360278 8=FIX.4.4|9=70|35=0|49=MAP_STLB_BETA|56=MAP_BLP_BETA|34=202|52=20190523-10:30:11.363|10=177|
 IN 20190523-10:30:41.277637935 8=FIX.4.4|9=0066|35=0|49=MAP_BLP_BETA|56=MAP_STLB_BETA|34=203|52=20190523-10:30:09|10=084|
OUT 20190523-10:30:41.363489985 8=FIX.4.4|9=70|35=0|49=MAP_STLB_BETA|56=MAP_BLP_BETA|34=203|52=20190523-10:30:41.363|10=181|
 IN 20190523-10:31:11.272341302 8=FIX.4.4|9=0066|35=0|49=MAP_BLP_BETA|56=MAP_STLB_BETA|34=204|52=20190523-10:30:39|10=088|
OUT 20190523-10:31:11.364167957 8=FIX.4.4|9=70|35=0|49=MAP_STLB_BETA|56=MAP_BLP_BETA|34=204|52=20190523-10:31:11.364|10=181|
 IN 20190523-10:31:41.275934257 8=FIX.4.4|9=0066|35=0|49=MAP_BLP_BETA|56=MAP_STLB_BETA|34=205|52=20190523-10:31:09|10=087|
OUT 20190523-10:31:41.364470464 8=FIX.4.4|9=70|35=0|49=MAP_STLB_BETA|56=MAP_BLP_BETA|34=205|52=20190523-10:31:41.364|10=185|
 IN 20190523-10:32:11.275807537 8=FIX.4.4|9=0066|35=0|49=MAP_BLP_BETA|56=MAP_STLB_BETA|34=206|52=20190523-10:31:39|10=091|
OUT 20190523-10:32:11.364928276 8=FIX.4.4|9=70|35=0|49=MAP_STLB_BETA|56=MAP_BLP_BETA|34=206|52=20190523-10:32:11.364|10=184|
 IN 20190523-10:32:41.277285935 8=FIX.4.4|9=0066|35=0|49=MAP_BLP_BETA|56=MAP_STLB_BETA|34=207|52=20190523-10:32:09|10=090|
OUT 20190523-10:32:41.365446676 8=FIX.4.4|9=70|35=0|49=MAP_STLB_BETA|56=MAP_BLP_BETA|34=207|52=20190523-10:32:41.365|10=189|
 IN 20190523-10:33:11.278275374 8=FIX.4.4|9=0066|35=0|49=MAP_BLP_BETA|56=MAP_STLB_BETA|34=208|52=20190523-10:32:39|10=094|
OUT 20190523-10:33:11.365724435 8=FIX.4.4|9=70|35=0|49=MAP_STLB_BETA|56=MAP_BLP_BETA|34=208|52=20190523-10:33:11.365|10=188|
 IN 20190523-10:33:41.280334891 8=FIX.4.4|9=0066|35=0|49=MAP_BLP_BETA|56=MAP_STLB_BETA|34=209|52=20190523-10:33:09|10=093|
OUT 20190523-10:33:41.365888702 8=FIX.4.4|9=70|35=0|49=MAP_STLB_BETA|56=MAP_BLP_BETA|34=209|52=20190523-10:33:41.365|10=192|
 IN 20190523-10:34:11.282446462 8=FIX.4.4|9=0066|35=0|49=MAP_BLP_BETA|56=MAP_STLB_BETA|34=210|52=20190523-10:33:39|10=088|
OUT 20190523-10:34:11.366032062 8=FIX.4.4|9=70|35=0|49=MAP_STLB_BETA|56=MAP_BLP_BETA|34=210|52=20190523-10:34:11.366|10=183|
 IN 20190523-10:34:41.280991531 8=FIX.4.4|9=0066|35=0|49=MAP_BLP_BETA|56=MAP_STLB_BETA|34=211|52=20190523-10:34:09|10=087|
OUT 20190523-10:34:41.366318355 8=FIX.4.4|9=70|35=0|49=MAP_STLB_BETA|56=MAP_BLP_BETA|34=211|52=20190523-10:34:41.366|10=187|
 IN 20190523-10:35:11.284422780 8=FIX.4.4|9=0066|35=0|49=MAP_BLP_BETA|56=MAP_STLB_BETA|34=212|52=20190523-10:34:39|10=091|
OUT 20190523-10:35:11.366588008 8=FIX.4.4|9=70|35=0|49=MAP_STLB_BETA|56=MAP_BLP_BETA|34=212|52=20190523-10:35:11.366|10=186|
 IN 20190523-10:35:41.284368593 8=FIX.4.4|9=0066|35=0|49=MAP_BLP_BETA|56=MAP_STLB_BETA|34=213|52=20190523-10:35:09|10=090|
OUT 20190523-10:35:41.367110674 8=FIX.4.4|9=70|35=0|49=MAP_STLB_BETA|56=MAP_BLP_BETA|34=213|52=20190523-10:35:41.367|10=191|
 IN 20190523-10:36:11.286241231 8=FIX.4.4|9=0066|35=0|49=MAP_BLP_BETA|56=MAP_STLB_BETA|34=214|52=20190523-10:35:39|10=094|
OUT 20190523-10:36:11.367223740 8=FIX.4.4|9=70|35=0|49=MAP_STLB_BETA|56=MAP_BLP_BETA|34=214|52=20190523-10:36:11.367|10=190|
 IN 20190523-10:36:41.277683588 8=FIX.4.4|9=0066|35=0|49=MAP_BLP_BETA|56=MAP_STLB_BETA|34=215|52=20190523-10:36:09|10=093|
OUT 20190523-10:36:41.367687953 8=FIX.4.4|9=70|35=0|49=MAP_STLB_BETA|56=MAP_BLP_BETA|34=215|52=20190523-10:36:41.367|10=194|
 IN 20190523-10:37:11.278328707 8=FIX.4.4|9=0066|35=0|49=MAP_BLP_BETA|56=MAP_STLB_BETA|34=216|52=20190523-10:36:39|10=097|
OUT 20190523-10:37:11.368408165 8=FIX.4.4|9=70|35=0|49=MAP_STLB_BETA|56=MAP_BLP_BETA|34=216|52=20190523-10:37:11.368|10=194|
 IN 20190523-10:37:41.278649134 8=FIX.4.4|9=0066|35=0|49=MAP_BLP_BETA|56=MAP_STLB_BETA|34=217|52=20190523-10:37:09|10=096|
OUT 20190523-10:37:41.368911631 8=FIX.4.4|9=70|35=0|49=MAP_STLB_BETA|56=MAP_BLP_BETA|34=217|52=20190523-10:37:41.368|10=198|
 IN 20190523-10:38:11.279267373 8=FIX.4.4|9=0066|35=0|49=MAP_BLP_BETA|56=MAP_STLB_BETA|34=218|52=20190523-10:37:39|10=100|
OUT 20190523-10:38:11.369488911 8=FIX.4.4|9=70|35=0|49=MAP_STLB_BETA|56=MAP_BLP_BETA|34=218|52=20190523-10:38:11.369|10=198|
 IN 20190523-10:38:41.281347370 8=FIX.4.4|9=0066|35=0|49=MAP_BLP_BETA|56=MAP_STLB_BETA|34=219|52=20190523-10:38:09|10=099|
OUT 20190523-10:38:41.369620324 8=FIX.4.4|9=70|35=0|49=MAP_STLB_BETA|56=MAP_BLP_BETA|34=219|52=20190523-10:38:41.369|10=202|
 IN 20190523-10:39:11.282959741 8=FIX.4.4|9=0066|35=0|49=MAP_BLP_BETA|56=MAP_STLB_BETA|34=220|52=20190523-10:38:39|10=094|
OUT 20190523-10:39:11.369636110 8=FIX.4.4|9=70|35=0|49=MAP_STLB_BETA|56=MAP_BLP_BETA|34=220|52=20190523-10:39:11.369|10=192|
 IN 20190523-10:39:41.284735952 8=FIX.4.4|9=0066|35=0|49=MAP_BLP_BETA|56=MAP_STLB_BETA|34=221|52=20190523-10:39:09|10=093|
OUT 20190523-10:39:41.370267150 8=FIX.4.4|9=70|35=0|49=MAP_STLB_BETA|56=MAP_BLP_BETA|34=221|52=20190523-10:39:41.370|10=188|
 IN 20190523-10:40:11.277899908 8=FIX.4.4|9=0066|35=0|49=MAP_BLP_BETA|56=MAP_STLB_BETA|34=222|52=20190523-10:39:39|10=097|
OUT 20190523-10:40:11.370845282 8=FIX.4.4|9=70|35=0|49=MAP_STLB_BETA|56=MAP_BLP_BETA|34=222|52=20190523-10:40:11.370|10=178|
 IN 20190523-10:40:41.278532227 8=FIX.4.4|9=0066|35=0|49=MAP_BLP_BETA|56=MAP_STLB_BETA|34=223|52=20190523-10:40:09|10=087|
OUT 20190523-10:40:41.370942562 8=FIX.4.4|9=70|35=0|49=MAP_STLB_BETA|56=MAP_BLP_BETA|34=223|52=20190523-10:40:41.370|10=182|
 IN 20190523-10:41:11.280294785 8=FIX.4.4|9=0066|35=0|49=MAP_BLP_BETA|56=MAP_STLB_BETA|34=224|52=20190523-10:40:39|10=091|
OUT 20190523-10:41:11.370990349 8=FIX.4.4|9=70|35=0|49=MAP_STLB_BETA|56=MAP_BLP_BETA|34=224|52=20190523-10:41:11.370|10=181|
 IN 20190523-10:41:41.284123260 8=FIX.4.4|9=0066|35=0|49=MAP_BLP_BETA|56=MAP_STLB_BETA|34=225|52=20190523-10:41:09|10=090|
OUT 20190523-10:41:41.371100855 8=FIX.4.4|9=70|35=0|49=MAP_STLB_BETA|56=MAP_BLP_BETA|34=225|52=20190523-10:41:41.371|10=186|
 IN 20190523-10:42:11.284509393 8=FIX.4.4|9=0066|35=0|49=MAP_BLP_BETA|56=MAP_STLB_BETA|34=226|52=20190523-10:41:39|10=094|
OUT 20190523-10:42:11.371476321 8=FIX.4.4|9=70|35=0|49=MAP_STLB_BETA|56=MAP_BLP_BETA|34=226|52=20190523-10:42:11.371|10=185|
 IN 20190523-10:42:41.286621390 8=FIX.4.4|9=0066|35=0|49=MAP_BLP_BETA|56=MAP_STLB_BETA|34=227|52=20190523-10:42:09|10=093|
OUT 20190523-10:42:41.371556108 8=FIX.4.4|9=70|35=0|49=MAP_STLB_BETA|56=MAP_BLP_BETA|34=227|52=20190523-10:42:41.371|10=189|
 IN 20190523-10:43:11.285760378 8=FIX.4.4|9=0066|35=0|49=MAP_BLP_BETA|56=MAP_STLB_BETA|34=228|52=20190523-10:42:39|10=097|
OUT 20190523-10:43:11.371926881 8=FIX.4.4|9=70|35=0|49=MAP_STLB_BETA|56=MAP_BLP_BETA|34=228|52=20190523-10:43:11.371|10=188|
 IN 20190523-10:43:41.288124535 8=FIX.4.4|9=0066|35=0|49=MAP_BLP_BETA|56=MAP_STLB_BETA|34=229|52=20190523-10:43:09|10=096|
OUT 20190523-10:43:41.372307467 8=FIX.4.4|9=70|35=0|49=MAP_STLB_BETA|56=MAP_BLP_BETA|34=229|52=20190523-10:43:41.372|10=193|
 IN 20190523-10:44:11.290665758 8=FIX.4.4|9=0066|35=0|49=MAP_BLP_BETA|56=MAP_STLB_BETA|34=230|52=20190523-10:43:39|10=091|
OUT 20190523-10:44:11.372409440 8=FIX.4.4|9=70|35=0|49=MAP_STLB_BETA|56=MAP_BLP_BETA|34=230|52=20190523-10:44:11.372|10=183|
 IN 20190523-10:44:41.290728051 8=FIX.4.4|9=0066|35=0|49=MAP_BLP_BETA|56=MAP_STLB_BETA|34=231|52=20190523-10:44:09|10=090|
OUT 20190523-10:44:41.372580960 8=FIX.4.4|9=70|35=0|49=MAP_STLB_BETA|56=MAP_BLP_BETA|34=231|52=20190523-10:44:41.372|10=187|
 IN 20190523-10:45:11.283862994 8=FIX.4.4|9=0066|35=0|49=MAP_BLP_BETA|56=MAP_STLB_BETA|34=232|52=20190523-10:44:39|10=094|
OUT 20190523-10:45:11.372655200 8=FIX.4.4|9=70|35=0|49=MAP_STLB_BETA|56=MAP_BLP_BETA|34=232|52=20190523-10:45:11.372|10=186|
 IN 20190523-10:45:41.283323688 8=FIX.4.4|9=0066|35=0|49=MAP_BLP_BETA|56=MAP_STLB_BETA|34=233|52=20190523-10:45:09|10=093|
OUT 20190523-10:45:41.373222239 8=FIX.4.4|9=70|35=0|49=MAP_STLB_BETA|56=MAP_BLP_BETA|34=233|52=20190523-10:45:41.373|10=191|
 IN 20190523-10:46:11.287295096 8=FIX.4.4|9=0066|35=0|49=MAP_BLP_BETA|56=MAP_STLB_BETA|34=234|52=20190523-10:45:39|10=097|
OUT 20190523-10:46:11.373562292 8=FIX.4.4|9=70|35=0|49=MAP_STLB_BETA|56=MAP_BLP_BETA|34=234|52=20190523-10:46:11.373|10=190|
 IN 20190523-10:46:41.286574030 8=FIX.4.4|9=0066|35=0|49=MAP_BLP_BETA|56=MAP_STLB_BETA|34=235|52=20190523-10:46:09|10=096|
OUT 20190523-10:46:41.373679625 8=FIX.4.4|9=70|35=0|49=MAP_STLB_BETA|56=MAP_BLP_BETA|34=235|52=20190523-10:46:41.373|10=194|
 IN 20190523-10:47:11.285728805 8=FIX.4.4|9=0066|35=0|49=MAP_BLP_BETA|56=MAP_STLB_BETA|34=236|52=20190523-10:46:39|10=100|
OUT 20190523-10:47:11.374116105 8=FIX.4.4|9=70|35=0|49=MAP_STLB_BETA|56=MAP_BLP_BETA|34=236|52=20190523-10:47:11.374|10=194|
 IN 20190523-10:47:41.288726561 8=FIX.4.4|9=0066|35=0|49=MAP_BLP_BETA|56=MAP_STLB_BETA|34=237|52=20190523-10:47:09|10=099|
OUT 20190523-10:47:41.375064584 8=FIX.4.4|9=70|35=0|49=MAP_STLB_BETA|56=MAP_BLP_BETA|34=237|52=20190523-10:47:41.375|10=199|
 IN 20190523-10:48:11.287743522 8=FIX.4.4|9=0066|35=0|49=MAP_BLP_BETA|56=MAP_STLB_BETA|34=238|52=20190523-10:47:39|10=103|
OUT 20190523-10:48:11.375308637 8=FIX.4.4|9=70|35=0|49=MAP_STLB_BETA|56=MAP_BLP_BETA|34=238|52=20190523-10:48:11.375|10=198|
 IN 20190523-10:48:41.291145758 8=FIX.4.4|9=0066|35=0|49=MAP_BLP_BETA|56=MAP_STLB_BETA|34=239|52=20190523-10:48:09|10=102|
OUT 20190523-10:48:41.376336049 8=FIX.4.4|9=70|35=0|49=MAP_STLB_BETA|56=MAP_BLP_BETA|34=239|52=20190523-10:48:41.376|10=203|
 IN 20190523-10:49:11.283828434 8=FIX.4.4|9=0066|35=0|49=MAP_BLP_BETA|56=MAP_STLB_BETA|34=240|52=20190523-10:48:39|10=097|
OUT 20190523-10:49:11.376381702 8=FIX.4.4|9=70|35=0|49=MAP_STLB_BETA|56=MAP_BLP_BETA|34=240|52=20190523-10:49:11.376|10=193|
 IN 20190523-10:49:41.283554941 8=FIX.4.4|9=0066|35=0|49=MAP_BLP_BETA|56=MAP_STLB_BETA|34=241|52=20190523-10:49:09|10=096|
OUT 20190523-10:49:41.377040901 8=FIX.4.4|9=70|35=0|49=MAP_STLB_BETA|56=MAP_BLP_BETA|34=241|52=20190523-10:49:41.377|10=198|
 IN 20190523-10:50:11.286790350 8=FIX.4.4|9=0066|35=0|49=MAP_BLP_BETA|56=MAP_STLB_BETA|34=242|52=20190523-10:49:39|10=100|
OUT 20190523-10:50:11.377555460 8=FIX.4.4|9=70|35=0|49=MAP_STLB_BETA|56=MAP_BLP_BETA|34=242|52=20190523-10:50:11.377|10=188|
 IN 20190523-10:50:41.285800484 8=FIX.4.4|9=0066|35=0|49=MAP_BLP_BETA|56=MAP_STLB_BETA|34=243|52=20190523-10:50:09|10=090|
OUT 20190523-10:50:41.378062766 8=FIX.4.4|9=70|35=0|49=MAP_STLB_BETA|56=MAP_BLP_BETA|34=243|52=20190523-10:50:41.378|10=193|
 IN 20190523-10:51:11.287547256 8=FIX.4.4|9=0066|35=0|49=MAP_BLP_BETA|56=MAP_STLB_BETA|34=244|52=20190523-10:50:39|10=094|
OUT 20190523-10:51:11.378178393 8=FIX.4.4|9=70|35=0|49=MAP_STLB_BETA|56=MAP_BLP_BETA|34=244|52=20190523-10:51:11.378|10=192|
 IN 20190523-10:51:41.281320064 8=FIX.4.4|9=0066|35=0|49=MAP_BLP_BETA|56=MAP_STLB_BETA|34=245|52=20190523-10:51:09|10=093|
OUT 20190523-10:51:41.378649006 8=FIX.4.4|9=70|35=0|49=MAP_STLB_BETA|56=MAP_BLP_BETA|34=245|52=20190523-10:51:41.378|10=196|
 IN 20190523-10:52:11.289030347 8=FIX.4.4|9=0066|35=0|49=MAP_BLP_BETA|56=MAP_STLB_BETA|34=246|52=20190523-10:51:39|10=097|
OUT 20190523-10:52:11.379271085 8=FIX.4.4|9=70|35=0|49=MAP_STLB_BETA|56=MAP_BLP_BETA|34=246|52=20190523-10:52:11.379|10=196|
 IN 20190523-10:52:41.281251797 8=FIX.4.4|9=0066|35=0|49=MAP_BLP_BETA|56=MAP_STLB_BETA|34=247|52=20190523-10:52:09|10=096|
OUT 20190523-10:52:41.379415725 8=FIX.4.4|9=70|35=0|49=MAP_STLB_BETA|56=MAP_BLP_BETA|34=247|52=20190523-10:52:41.379|10=200|
 IN 20190523-10:53:11.282781395 8=FIX.4.4|9=0066|35=0|49=MAP_BLP_BETA|56=MAP_STLB_BETA|34=248|52=20190523-10:52:39|10=100|
OUT 20190523-10:53:11.379638018 8=FIX.4.4|9=70|35=0|49=MAP_STLB_BETA|56=MAP_BLP_BETA|34=248|52=20190523-10:53:11.379|10=199|
 IN 20190523-10:53:41.284555899 8=FIX.4.4|9=0066|35=0|49=MAP_BLP_BETA|56=MAP_STLB_BETA|34=249|52=20190523-10:53:09|10=099|
OUT 20190523-10:53:41.379733164 8=FIX.4.4|9=70|35=0|49=MAP_STLB_BETA|56=MAP_BLP_BETA|34=249|52=20190523-10:53:41.379|10=203|
 IN 20190523-10:54:11.287549389 8=FIX.4.4|9=0066|35=0|49=MAP_BLP_BETA|56=MAP_STLB_BETA|34=250|52=20190523-10:53:39|10=094|
OUT 20190523-10:54:11.379921324 8=FIX.4.4|9=70|35=0|49=MAP_STLB_BETA|56=MAP_BLP_BETA|34=250|52=20190523-10:54:11.379|10=193|
 IN 20190523-10:54:41.285748858 8=FIX.4.4|9=0066|35=0|49=MAP_BLP_BETA|56=MAP_STLB_BETA|34=251|52=20190523-10:54:09|10=093|
OUT 20190523-10:54:41.379935404 8=FIX.4.4|9=70|35=0|49=MAP_STLB_BETA|56=MAP_BLP_BETA|34=251|52=20190523-10:54:41.379|10=197|
 IN 20190523-10:55:11.287719202 8=FIX.4.4|9=0066|35=0|49=MAP_BLP_BETA|56=MAP_STLB_BETA|34=252|52=20190523-10:54:39|10=097|
OUT 20190523-10:55:11.382233428 8=FIX.4.4|9=70|35=0|49=MAP_STLB_BETA|56=MAP_BLP_BETA|34=252|52=20190523-10:55:11.382|10=190|
 IN 20190523-10:55:41.287266936 8=FIX.4.4|9=0066|35=0|49=MAP_BLP_BETA|56=MAP_STLB_BETA|34=253|52=20190523-10:55:09|10=096|
OUT 20190523-10:55:41.382067881 8=FIX.4.4|9=70|35=0|49=MAP_STLB_BETA|56=MAP_BLP_BETA|34=253|52=20190523-10:55:41.382|10=194|
 IN 20190523-10:56:11.287695309 8=FIX.4.4|9=0066|35=0|49=MAP_BLP_BETA|56=MAP_STLB_BETA|34=254|52=20190523-10:55:39|10=100|
OUT 20190523-10:56:11.382167294 8=FIX.4.4|9=70|35=0|49=MAP_STLB_BETA|56=MAP_BLP_BETA|34=254|52=20190523-10:56:11.382|10=193|
 IN 20190523-10:56:41.279696599 8=FIX.4.4|9=0066|35=0|49=MAP_BLP_BETA|56=MAP_STLB_BETA|34=255|52=20190523-10:56:09|10=099|
OUT 20190523-10:56:41.382545747 8=FIX.4.4|9=70|35=0|49=MAP_STLB_BETA|56=MAP_BLP_BETA|34=255|52=20190523-10:56:41.382|10=197|
 IN 20190523-10:57:11.279934679 8=FIX.4.4|9=0066|35=0|49=MAP_BLP_BETA|56=MAP_STLB_BETA|34=256|52=20190523-10:56:39|10=103|
OUT 20190523-10:57:11.382637054 8=FIX.4.4|9=70|35=0|49=MAP_STLB_BETA|56=MAP_BLP_BETA|34=256|52=20190523-10:57:11.382|10=196|
 IN 20190523-10:57:41.283930407 8=FIX.4.4|9=0066|35=0|49=MAP_BLP_BETA|56=MAP_STLB_BETA|34=257|52=20190523-10:57:09|10=102|
OUT 20190523-10:57:41.383040680 8=FIX.4.4|9=70|35=0|49=MAP_STLB_BETA|56=MAP_BLP_BETA|34=257|52=20190523-10:57:41.383|10=201|
 IN 20190523-10:58:11.283771260 8=FIX.4.4|9=0066|35=0|49=MAP_BLP_BETA|56=MAP_STLB_BETA|34=258|52=20190523-10:57:39|10=106|
OUT 20190523-10:58:11.383444306 8=FIX.4.4|9=70|35=0|49=MAP_STLB_BETA|56=MAP_BLP_BETA|34=258|52=20190523-10:58:11.383|10=200|
 IN 20190523-10:58:41.285449338 8=FIX.4.4|9=0066|35=0|49=MAP_BLP_BETA|56=MAP_STLB_BETA|34=259|52=20190523-10:58:09|10=105|
OUT 20190523-10:58:41.383491666 8=FIX.4.4|9=70|35=0|49=MAP_STLB_BETA|56=MAP_BLP_BETA|34=259|52=20190523-10:58:41.383|10=204|
 IN 20190523-10:59:11.287024163 8=FIX.4.4|9=0066|35=0|49=MAP_BLP_BETA|56=MAP_STLB_BETA|34=260|52=20190523-10:58:39|10=100|
OUT 20190523-10:59:11.383997692 8=FIX.4.4|9=70|35=0|49=MAP_STLB_BETA|56=MAP_BLP_BETA|34=260|52=20190523-10:59:11.383|10=194|
 IN 20190523-10:59:41.286726350 8=FIX.4.4|9=0066|35=0|49=MAP_BLP_BETA|56=MAP_STLB_BETA|34=261|52=20190523-10:59:09|10=099|
OUT 20190523-10:59:41.384024999 8=FIX.4.4|9=70|35=0|49=MAP_STLB_BETA|56=MAP_BLP_BETA|34=261|52=20190523-10:59:41.384|10=199|
 IN 20190523-11:00:11.279601026 8=FIX.4.4|9=0066|35=0|49=MAP_BLP_BETA|56=MAP_STLB_BETA|34=262|52=20190523-10:59:39|10=103|
OUT 20190523-11:00:11.384344572 8=FIX.4.4|9=70|35=0|49=MAP_STLB_BETA|56=MAP_BLP_BETA|34=262|52=20190523-11:00:11.384|10=184|
 IN 20190523-11:00:41.278295427 8=FIX.4.4|9=0066|35=0|49=MAP_BLP_BETA|56=MAP_STLB_BETA|34=263|52=20190523-11:00:09|10=088|
OUT 20190523-11:00:41.384532731 8=FIX.4.4|9=70|35=0|49=MAP_STLB_BETA|56=MAP_BLP_BETA|34=263|52=20190523-11:00:41.384|10=188|
 IN 20190523-11:01:11.281896489 8=FIX.4.4|9=0066|35=0|49=MAP_BLP_BETA|56=MAP_STLB_BETA|34=264|52=20190523-11:00:39|10=092|
OUT 20190523-11:01:11.385037477 8=FIX.4.4|9=70|35=0|49=MAP_STLB_BETA|56=MAP_BLP_BETA|34=264|52=20190523-11:01:11.385|10=188|
 IN 20190523-11:01:41.283254568 8=FIX.4.4|9=0066|35=0|49=MAP_BLP_BETA|56=MAP_STLB_BETA|34=265|52=20190523-11:01:09|10=091|
OUT 20190523-11:01:41.385222651 8=FIX.4.4|9=70|35=0|49=MAP_STLB_BETA|56=MAP_BLP_BETA|34=265|52=20190523-11:01:41.385|10=192|
 IN 20190523-11:02:11.282994301 8=FIX.4.4|9=0066|35=0|49=MAP_BLP_BETA|56=MAP_STLB_BETA|34=266|52=20190523-11:01:39|10=095|
OUT 20190523-11:02:11.386193316 8=FIX.4.4|9=70|35=0|49=MAP_STLB_BETA|56=MAP_BLP_BETA|34=266|52=20190523-11:02:11.386|10=192|
 IN 20190523-11:02:41.286462670 8=FIX.4.4|9=0066|35=0|49=MAP_BLP_BETA|56=MAP_STLB_BETA|34=267|52=20190523-11:02:09|10=094|
OUT 20190523-11:02:41.386582009 8=FIX.4.4|9=70|35=0|49=MAP_STLB_BETA|56=MAP_BLP_BETA|34=267|52=20190523-11:02:41.386|10=196|
 IN 20190523-11:03:11.277510362 8=FIX.4.4|9=0066|35=0|49=MAP_BLP_BETA|56=MAP_STLB_BETA|34=268|52=20190523-11:02:39|10=098|
OUT 20190523-11:03:11.387235235 8=FIX.4.4|9=70|35=0|49=MAP_STLB_BETA|56=MAP_BLP_BETA|34=268|52=20190523-11:03:11.387|10=196|
 IN 20190523-11:03:41.280747904 8=FIX.4.4|9=0066|35=0|49=MAP_BLP_BETA|56=MAP_STLB_BETA|34=269|52=20190523-11:03:09|10=097|
OUT 20190523-11:03:41.387441314 8=FIX.4.4|9=70|35=0|49=MAP_STLB_BETA|56=MAP_BLP_BETA|34=269|52=20190523-11:03:41.387|10=200|
 IN 20190523-11:04:11.284668539 8=FIX.4.4|9=0066|35=0|49=MAP_BLP_BETA|56=MAP_STLB_BETA|34=270|52=20190523-11:03:39|10=092|
OUT 20190523-11:04:11.387926007 8=FIX.4.4|9=70|35=0|49=MAP_STLB_BETA|56=MAP_BLP_BETA|34=270|52=20190523-11:04:11.387|10=190|
 IN 20190523-11:04:41.282047103 8=FIX.4.4|9=0066|35=0|49=MAP_BLP_BETA|56=MAP_STLB_BETA|34=271|52=20190523-11:04:09|10=091|
OUT 20190523-11:04:41.388080034 8=FIX.4.4|9=70|35=0|49=MAP_STLB_BETA|56=MAP_BLP_BETA|34=271|52=20190523-11:04:41.388|10=195|
 IN 20190523-11:05:11.284434726 8=FIX.4.4|9=0066|35=0|49=MAP_BLP_BETA|56=MAP_STLB_BETA|34=272|52=20190523-11:04:39|10=095|
OUT 20190523-11:05:11.388103927 8=FIX.4.4|9=70|35=0|49=MAP_STLB_BETA|56=MAP_BLP_BETA|34=272|52=20190523-11:05:11.388|10=194|
 IN 20190523-11:05:41.285532111 8=FIX.4.4|9=0066|35=0|49=MAP_BLP_BETA|56=MAP_STLB_BETA|34=273|52=20190523-11:05:09|10=094|
OUT 20190523-11:05:41.388209740 8=FIX.4.4|9=70|35=0|49=MAP_STLB_BETA|56=MAP_BLP_BETA|34=273|52=20190523-11:05:41.388|10=198|
 IN 20190523-11:06:11.288659147 8=FIX.4.4|9=0066|35=0|49=MAP_BLP_BETA|56=MAP_STLB_BETA|34=274|52=20190523-11:05:39|10=098|
OUT 20190523-11:06:11.388248993 8=FIX.4.4|9=70|35=0|49=MAP_STLB_BETA|56=MAP_BLP_BETA|34=274|52=20190523-11:06:11.388|10=197|
 IN 20190523-11:06:41.290360692 8=FIX.4.4|9=0066|35=0|49=MAP_BLP_BETA|56=MAP_STLB_BETA|34=275|52=20190523-11:06:09|10=097|
OUT 20190523-11:06:41.388669259 8=FIX.4.4|9=70|35=0|49=MAP_STLB_BETA|56=MAP_BLP_BETA|34=275|52=20190523-11:06:41.388|10=201|
 IN 20190523-11:07:11.289144267 8=FIX.4.4|9=0066|35=0|49=MAP_BLP_BETA|56=MAP_STLB_BETA|34=276|52=20190523-11:06:39|10=101|
OUT 20190523-11:07:11.389037899 8=FIX.4.4|9=70|35=0|49=MAP_STLB_BETA|56=MAP_BLP_BETA|34=276|52=20190523-11:07:11.389|10=201|
 IN 20190523-11:07:41.292250823 8=FIX.4.4|9=0066|35=0|49=MAP_BLP_BETA|56=MAP_STLB_BETA|34=277|52=20190523-11:07:09|10=100|
OUT 20190523-11:07:41.389577205 8=FIX.4.4|9=70|35=0|49=MAP_STLB_BETA|56=MAP_BLP_BETA|34=277|52=20190523-11:07:41.389|10=205|
 IN 20190523-11:08:11.291679944 8=FIX.4.4|9=0066|35=0|49=MAP_BLP_BETA|56=MAP_STLB_BETA|34=278|52=20190523-11:07:39|10=104|
OUT 20190523-11:08:11.389852405 8=FIX.4.4|9=70|35=0|49=MAP_STLB_BETA|56=MAP_BLP_BETA|34=278|52=20190523-11:08:11.389|10=204|
 IN 20190523-11:08:41.293324741 8=FIX.4.4|9=0066|35=0|49=MAP_BLP_BETA|56=MAP_STLB_BETA|34=279|52=20190523-11:08:09|10=103|
OUT 20190523-11:08:41.390235551 8=FIX.4.4|9=70|35=0|49=MAP_STLB_BETA|56=MAP_BLP_BETA|34=279|52=20190523-11:08:41.390|10=200|
 IN 20190523-11:09:11.285058512 8=FIX.4.4|9=0066|35=0|49=MAP_BLP_BETA|56=MAP_STLB_BETA|34=280|52=20190523-11:08:39|10=098|
OUT 20190523-11:09:11.392707228 8=FIX.4.4|9=70|35=0|49=MAP_STLB_BETA|56=MAP_BLP_BETA|34=280|52=20190523-11:09:11.392|10=192|
 IN 20190523-11:09:41.293795781 8=FIX.4.4|9=0066|35=0|49=MAP_BLP_BETA|56=MAP_STLB_BETA|34=281|52=20190523-11:09:09|10=097|
OUT 20190523-11:09:41.392528881 8=FIX.4.4|9=70|35=0|49=MAP_STLB_BETA|56=MAP_BLP_BETA|34=281|52=20190523-11:09:41.392|10=196|
 IN 20190523-11:10:11.285515045 8=FIX.4.4|9=0066|35=0|49=MAP_BLP_BETA|56=MAP_STLB_BETA|34=282|52=20190523-11:09:39|10=101|
OUT 20190523-11:10:11.392748188 8=FIX.4.4|9=70|35=0|49=MAP_STLB_BETA|56=MAP_BLP_BETA|34=282|52=20190523-11:10:11.392|10=186|
 IN 20190523-11:10:41.284610939 8=FIX.4.4|9=0066|35=0|49=MAP_BLP_BETA|56=MAP_STLB_BETA|34=283|52=20190523-11:10:09|10=091|
OUT 20190523-11:10:41.393230747 8=FIX.4.4|9=70|35=0|49=MAP_STLB_BETA|56=MAP_BLP_BETA|34=283|52=20190523-11:10:41.393|10=191|
 IN 20190523-11:11:11.286629923 8=FIX.4.4|9=0066|35=0|49=MAP_BLP_BETA|56=MAP_STLB_BETA|34=284|52=20190523-11:10:39|10=095|
OUT 20190523-11:11:11.393681306 8=FIX.4.4|9=70|35=0|49=MAP_STLB_BETA|56=MAP_BLP_BETA|34=284|52=20190523-11:11:11.393|10=190|
 IN 20190523-11:11:41.288537974 8=FIX.4.4|9=0066|35=0|49=MAP_BLP_BETA|56=MAP_STLB_BETA|34=285|52=20190523-11:11:09|10=094|
OUT 20190523-11:11:41.393936879 8=FIX.4.4|9=70|35=0|49=MAP_STLB_BETA|56=MAP_BLP_BETA|34=285|52=20190523-11:11:41.393|10=194|
 IN 20190523-11:12:11.288637387 8=FIX.4.4|9=0066|35=0|49=MAP_BLP_BETA|56=MAP_STLB_BETA|34=286|52=20190523-11:11:39|10=098|
OUT 20190523-11:12:11.395146478 8=FIX.4.4|9=70|35=0|49=MAP_STLB_BETA|56=MAP_BLP_BETA|34=286|52=20190523-11:12:11.395|10=195|
 IN 20190523-11:12:41.291189704 8=FIX.4.4|9=0066|35=0|49=MAP_BLP_BETA|56=MAP_STLB_BETA|34=287|52=20190523-11:12:09|10=097|
OUT 20190523-11:12:41.395809090 8=FIX.4.4|9=70|35=0|49=MAP_STLB_BETA|56=MAP_BLP_BETA|34=287|52=20190523-11:12:41.395|10=199|
 IN 20190523-11:13:11.284578939 8=FIX.4.4|9=0066|35=0|49=MAP_BLP_BETA|56=MAP_STLB_BETA|34=288|52=20190523-11:12:39|10=101|
OUT 20190523-11:13:11.395817197 8=FIX.4.4|9=70|35=0|49=MAP_STLB_BETA|56=MAP_BLP_BETA|34=288|52=20190523-11:13:11.395|10=198|
 IN 20190523-11:13:41.286408910 8=FIX.4.4|9=0066|35=0|49=MAP_BLP_BETA|56=MAP_STLB_BETA|34=289|52=20190523-11:13:09|10=100|
OUT 20190523-11:13:41.396226796 8=FIX.4.4|9=70|35=0|49=MAP_STLB_BETA|56=MAP_BLP_BETA|34=289|52=20190523-11:13:41.396|10=203|
 IN 20190523-11:14:11.290191305 8=FIX.4.4|9=0066|35=0|49=MAP_BLP_BETA|56=MAP_STLB_BETA|34=290|52=20190523-11:13:39|10=095|
OUT 20190523-11:14:11.396761409 8=FIX.4.4|9=70|35=0|49=MAP_STLB_BETA|56=MAP_BLP_BETA|34=290|52=20190523-11:14:11.396|10=193|
 IN 20190523-11:14:41.290578718 8=FIX.4.4|9=0066|35=0|49=MAP_BLP_BETA|56=MAP_STLB_BETA|34=291|52=20190523-11:14:09|10=094|
OUT 20190523-11:14:41.396805356 8=FIX.4.4|9=70|35=0|49=MAP_STLB_BETA|56=MAP_BLP_BETA|34=291|52=20190523-11:14:41.396|10=197|
 IN 20190523-11:15:11.283770834 8=FIX.4.4|9=0066|35=0|49=MAP_BLP_BETA|56=MAP_STLB_BETA|34=292|52=20190523-11:14:39|10=098|
OUT 20190523-11:15:11.397961621 8=FIX.4.4|9=70|35=0|49=MAP_STLB_BETA|56=MAP_BLP_BETA|34=292|52=20190523-11:15:11.397|10=197|
 IN 20190523-11:15:41.284837499 8=FIX.4.4|9=0066|35=0|49=MAP_BLP_BETA|56=MAP_STLB_BETA|34=293|52=20190523-11:15:09|10=097|
OUT 20190523-11:15:41.398490260 8=FIX.4.4|9=70|35=0|49=MAP_STLB_BETA|56=MAP_BLP_BETA|34=293|52=20190523-11:15:41.398|10=202|
 IN 20190523-11:16:11.285464698 8=FIX.4.4|9=0066|35=0|49=MAP_BLP_BETA|56=MAP_STLB_BETA|34=294|52=20190523-11:15:39|10=101|
OUT 20190523-11:16:11.398840980 8=FIX.4.4|9=70|35=0|49=MAP_STLB_BETA|56=MAP_BLP_BETA|34=294|52=20190523-11:16:11.398|10=201|
 IN 20190523-11:16:41.286981070 8=FIX.4.4|9=0066|35=0|49=MAP_BLP_BETA|56=MAP_STLB_BETA|34=295|52=20190523-11:16:09|10=100|
OUT 20190523-11:16:41.399100819 8=FIX.4.4|9=70|35=0|49=MAP_STLB_BETA|56=MAP_BLP_BETA|34=295|52=20190523-11:16:41.399|10=206|
 IN 20190523-11:17:11.287806669 8=FIX.4.4|9=0066|35=0|49=MAP_BLP_BETA|56=MAP_STLB_BETA|34=296|52=20190523-11:16:39|10=104|
OUT 20190523-11:17:11.401069457 8=FIX.4.4|9=70|35=0|49=MAP_STLB_BETA|56=MAP_BLP_BETA|34=296|52=20190523-11:17:11.401|10=189|
 IN 20190523-11:17:41.289376373 8=FIX.4.4|9=0066|35=0|49=MAP_BLP_BETA|56=MAP_STLB_BETA|34=297|52=20190523-11:17:09|10=103|
OUT 20190523-11:17:41.401644176 8=FIX.4.4|9=70|35=0|49=MAP_STLB_BETA|56=MAP_BLP_BETA|34=297|52=20190523-11:17:41.401|10=193|
 IN 20190523-11:18:11.288003788 8=FIX.4.4|9=0066|35=0|49=MAP_BLP_BETA|56=MAP_STLB_BETA|34=298|52=20190523-11:17:39|10=107|
OUT 20190523-11:18:11.401956496 8=FIX.4.4|9=70|35=0|49=MAP_STLB_BETA|56=MAP_BLP_BETA|34=298|52=20190523-11:18:11.401|10=192|
 IN 20190523-11:18:41.290746398 8=FIX.4.4|9=0066|35=0|49=MAP_BLP_BETA|56=MAP_STLB_BETA|34=299|52=20190523-11:18:09|10=106|
OUT 20190523-11:18:41.402123749 8=FIX.4.4|9=70|35=0|49=MAP_STLB_BETA|56=MAP_BLP_BETA|34=299|52=20190523-11:18:41.402|10=197|
 IN 20190523-11:19:11.282263849 8=FIX.4.4|9=0066|35=0|49=MAP_BLP_BETA|56=MAP_STLB_BETA|34=300|52=20190523-11:18:39|10=092|
OUT 20190523-11:19:11.402321722 8=FIX.4.4|9=70|35=0|49=MAP_STLB_BETA|56=MAP_BLP_BETA|34=300|52=20190523-11:19:11.402|10=178|
 IN 20190523-11:19:41.283853180 8=FIX.4.4|9=0066|35=0|49=MAP_BLP_BETA|56=MAP_STLB_BETA|34=301|52=20190523-11:19:09|10=091|
OUT 20190523-11:19:41.402509028 8=FIX.4.4|9=70|35=0|49=MAP_STLB_BETA|56=MAP_BLP_BETA|34=301|52=20190523-11:19:41.402|10=182|
 IN 20190523-11:20:11.284874192 8=FIX.4.4|9=0066|35=0|49=MAP_BLP_BETA|56=MAP_STLB_BETA|34=302|52=20190523-11:19:39|10=095|
OUT 20190523-11:20:11.402806415 8=FIX.4.4|9=70|35=0|49=MAP_STLB_BETA|56=MAP_BLP_BETA|34=302|52=20190523-11:20:11.402|10=172|
 IN 20190523-11:20:41.283896274 8=FIX.4.4|9=0066|35=0|49=MAP_BLP_BETA|56=MAP_STLB_BETA|34=303|52=20190523-11:20:09|10=085|
OUT 20190523-11:20:41.403421667 8=FIX.4.4|9=70|35=0|49=MAP_STLB_BETA|56=MAP_BLP_BETA|34=303|52=20190523-11:20:41.403|10=177|
 IN 20190523-11:21:11.285947258 8=FIX.4.4|9=0066|35=0|49=MAP_BLP_BETA|56=MAP_STLB_BETA|34=304|52=20190523-11:20:39|10=089|
OUT 20190523-11:21:11.403750200 8=FIX.4.4|9=70|35=0|49=MAP_STLB_BETA|56=MAP_BLP_BETA|34=304|52=20190523-11:21:11.403|10=176|
 IN 20190523-11:21:41.287655629 8=FIX.4.4|9=0066|35=0|49=MAP_BLP_BETA|56=MAP_STLB_BETA|34=305|52=20190523-11:21:09|10=088|
OUT 20190523-11:21:41.404687586 8=FIX.4.4|9=70|35=0|49=MAP_STLB_BETA|56=MAP_BLP_BETA|34=305|52=20190523-11:21:41.404|10=181|
 IN 20190523-11:22:11.287322402 8=FIX.4.4|9=0066|35=0|49=MAP_BLP_BETA|56=MAP_STLB_BETA|34=306|52=20190523-11:21:39|10=092|
OUT 20190523-11:22:11.404856545 8=FIX.4.4|9=70|35=0|49=MAP_STLB_BETA|56=MAP_BLP_BETA|34=306|52=20190523-11:22:11.404|10=180|
 IN 20190523-11:22:41.279851479 8=FIX.4.4|9=0066|35=0|49=MAP_BLP_BETA|56=MAP_STLB_BETA|34=307|52=20190523-11:22:09|10=091|
OUT 20190523-11:22:41.405086092 8=FIX.4.4|9=70|35=0|49=MAP_STLB_BETA|56=MAP_BLP_BETA|34=307|52=20190523-11:22:41.405|10=185|
 IN 20190523-11:23:11.280837077 8=FIX.4.4|9=0066|35=0|49=MAP_BLP_BETA|56=MAP_STLB_BETA|34=308|52=20190523-11:22:39|10=095|
OUT 20190523-11:23:11.405482465 8=FIX.4.4|9=70|35=0|49=MAP_STLB_BETA|56=MAP_BLP_BETA|34=308|52=20190523-11:23:11.405|10=184|
 IN 20190523-11:23:41.282368809 8=FIX.4.4|9=0066|35=0|49=MAP_BLP_BETA|56=MAP_STLB_BETA|34=309|52=20190523-11:23:09|10=094|
OUT 20190523-11:23:41.405761078 8=FIX.4.4|9=70|35=0|49=MAP_STLB_BETA|56=MAP_BLP_BETA|34=309|52=20190523-11:23:41.405|10=188|
 IN 20190523-11:24:11.284014033 8=FIX.4.4|9=0066|35=0|49=MAP_BLP_BETA|56=MAP_STLB_BETA|34=310|52=20190523-11:23:39|10=089|
OUT 20190523-11:24:11.406132277 8=FIX.4.4|9=70|35=0|49=MAP_STLB_BETA|56=MAP_BLP_BETA|34=310|52=20190523-11:24:11.406|10=179|
 IN 20190523-11:24:41.285721125 8=FIX.4.4|9=0066|35=0|49=MAP_BLP_BETA|56=MAP_STLB_BETA|34=311|52=20190523-11:24:09|10=088|
OUT 20190523-11:24:41.406376757 8=FIX.4.4|9=70|35=0|49=MAP_STLB_BETA|56=MAP_BLP_BETA|34=311|52=20190523-11:24:41.406|10=183|
 IN 20190523-11:25:11.287691895 8=FIX.4.4|9=0066|35=0|49=MAP_BLP_BETA|56=MAP_STLB_BETA|34=312|52=20190523-11:24:39|10=092|
OUT 20190523-11:25:11.406775263 8=FIX.4.4|9=70|35=0|49=MAP_STLB_BETA|56=MAP_BLP_BETA|34=312|52=20190523-11:25:11.406|10=182|
 IN 20190523-11:25:41.285798778 8=FIX.4.4|9=0066|35=0|49=MAP_BLP_BETA|56=MAP_STLB_BETA|34=313|52=20190523-11:25:09|10=091|
OUT 20190523-11:25:41.406869129 8=FIX.4.4|9=70|35=0|49=MAP_STLB_BETA|56=MAP_BLP_BETA|34=313|52=20190523-11:25:41.406|10=186|
 IN 20190523-11:26:11.287480696 8=FIX.4.4|9=0066|35=0|49=MAP_BLP_BETA|56=MAP_STLB_BETA|34=314|52=20190523-11:25:39|10=095|
OUT 20190523-11:26:11.406996276 8=FIX.4.4|9=70|35=0|49=MAP_STLB_BETA|56=MAP_BLP_BETA|34=314|52=20190523-11:26:11.406|10=185|
 IN 20190523-11:26:41.281148970 8=FIX.4.4|9=0066|35=0|49=MAP_BLP_BETA|56=MAP_STLB_BETA|34=315|52=20190523-11:26:09|10=094|
OUT 20190523-11:26:41.407466462 8=FIX.4.4|9=70|35=0|49=MAP_STLB_BETA|56=MAP_BLP_BETA|34=315|52=20190523-11:26:41.407|10=190|
 IN 20190523-11:27:11.281187370 8=FIX.4.4|9=0066|35=0|49=MAP_BLP_BETA|56=MAP_STLB_BETA|34=316|52=20190523-11:26:39|10=098|
OUT 20190523-11:27:11.408080861 8=FIX.4.4|9=70|35=0|49=MAP_STLB_BETA|56=MAP_BLP_BETA|34=316|52=20190523-11:27:11.408|10=190|
 IN 20190523-11:27:41.282604755 8=FIX.4.4|9=0066|35=0|49=MAP_BLP_BETA|56=MAP_STLB_BETA|34=317|52=20190523-11:27:09|10=097|
OUT 20190523-11:27:41.407980168 8=FIX.4.4|9=70|35=0|49=MAP_STLB_BETA|56=MAP_BLP_BETA|34=317|52=20190523-11:27:41.407|10=193|
 IN 20190523-11:28:11.282122196 8=FIX.4.4|9=0066|35=0|49=MAP_BLP_BETA|56=MAP_STLB_BETA|34=318|52=20190523-11:27:39|10=101|
OUT 20190523-11:28:11.408409394 8=FIX.4.4|9=70|35=0|49=MAP_STLB_BETA|56=MAP_BLP_BETA|34=318|52=20190523-11:28:11.408|10=193|
 IN 20190523-11:28:41.284115153 8=FIX.4.4|9=0066|35=0|49=MAP_BLP_BETA|56=MAP_STLB_BETA|34=319|52=20190523-11:28:09|10=100|
OUT 20190523-11:28:41.408545074 8=FIX.4.4|9=70|35=0|49=MAP_STLB_BETA|56=MAP_BLP_BETA|34=319|52=20190523-11:28:41.408|10=197|
 IN 20190523-11:29:11.286549283 8=FIX.4.4|9=0066|35=0|49=MAP_BLP_BETA|56=MAP_STLB_BETA|34=320|52=20190523-11:28:39|10=095|
OUT 20190523-11:29:11.408845020 8=FIX.4.4|9=70|35=0|49=MAP_STLB_BETA|56=MAP_BLP_BETA|34=320|52=20190523-11:29:11.408|10=187|
 IN 20190523-11:29:41.285766351 8=FIX.4.4|9=0066|35=0|49=MAP_BLP_BETA|56=MAP_STLB_BETA|34=321|52=20190523-11:29:09|10=094|
OUT 20190523-11:29:41.408848860 8=FIX.4.4|9=70|35=0|49=MAP_STLB_BETA|56=MAP_BLP_BETA|34=321|52=20190523-11:29:41.408|10=191|
 IN 20190523-11:30:11.279129133 8=FIX.4.4|9=0066|35=0|49=MAP_BLP_BETA|56=MAP_STLB_BETA|34=322|52=20190523-11:29:39|10=098|
OUT 20190523-11:30:11.408911154 8=FIX.4.4|9=70|35=0|49=MAP_STLB_BETA|56=MAP_BLP_BETA|34=322|52=20190523-11:30:11.408|10=181|
 IN 20190523-11:30:41.277109296 8=FIX.4.4|9=0066|35=0|49=MAP_BLP_BETA|56=MAP_STLB_BETA|34=323|52=20190523-11:30:09|10=088|
OUT 20190523-11:30:41.409907846 8=FIX.4.4|9=70|35=0|49=MAP_STLB_BETA|56=MAP_BLP_BETA|34=323|52=20190523-11:30:41.409|10=186|
 IN 20190523-11:31:11.280210732 8=FIX.4.4|9=0066|35=0|49=MAP_BLP_BETA|56=MAP_STLB_BETA|34=324|52=20190523-11:30:39|10=092|
OUT 20190523-11:31:11.409983365 8=FIX.4.4|9=70|35=0|49=MAP_STLB_BETA|56=MAP_BLP_BETA|34=324|52=20190523-11:31:11.409|10=185|
 IN 20190523-11:31:41.281783423 8=FIX.4.4|9=0066|35=0|49=MAP_BLP_BETA|56=MAP_STLB_BETA|34=325|52=20190523-11:31:09|10=091|
OUT 20190523-11:31:41.410368645 8=FIX.4.4|9=70|35=0|49=MAP_STLB_BETA|56=MAP_BLP_BETA|34=325|52=20190523-11:31:41.410|10=181|
 IN 20190523-11:32:11.283077501 8=FIX.4.4|9=0066|35=0|49=MAP_BLP_BETA|56=MAP_STLB_BETA|34=326|52=20190523-11:31:39|10=095|
OUT 20190523-11:32:11.410828591 8=FIX.4.4|9=70|35=0|49=MAP_STLB_BETA|56=MAP_BLP_BETA|34=326|52=20190523-11:32:11.410|10=180|
 IN 20190523-11:32:41.285193339 8=FIX.4.4|9=0066|35=0|49=MAP_BLP_BETA|56=MAP_STLB_BETA|34=327|52=20190523-11:32:09|10=094|
OUT 20190523-11:32:41.411205764 8=FIX.4.4|9=70|35=0|49=MAP_STLB_BETA|56=MAP_BLP_BETA|34=327|52=20190523-11:32:41.411|10=185|
 IN 20190523-11:33:11.288604108 8=FIX.4.4|9=0066|35=0|49=MAP_BLP_BETA|56=MAP_STLB_BETA|34=328|52=20190523-11:32:39|10=098|
OUT 20190523-11:33:11.413543894 8=FIX.4.4|9=70|35=0|49=MAP_STLB_BETA|56=MAP_BLP_BETA|34=328|52=20190523-11:33:11.413|10=186|
 IN 20190523-11:33:41.276723163 8=FIX.4.4|9=0066|35=0|49=MAP_BLP_BETA|56=MAP_STLB_BETA|34=329|52=20190523-11:33:09|10=097|
OUT 20190523-11:33:41.414185173 8=FIX.4.4|9=70|35=0|49=MAP_STLB_BETA|56=MAP_BLP_BETA|34=329|52=20190523-11:33:41.414|10=191|
 IN 20190523-11:34:11.280394198 8=FIX.4.4|9=0066|35=0|49=MAP_BLP_BETA|56=MAP_STLB_BETA|34=330|52=20190523-11:33:39|10=092|
OUT 20190523-11:34:11.417028903 8=FIX.4.4|9=70|35=0|49=MAP_STLB_BETA|56=MAP_BLP_BETA|34=330|52=20190523-11:34:11.417|10=184|
 IN 20190523-11:34:41.280778624 8=FIX.4.4|9=0066|35=0|49=MAP_BLP_BETA|56=MAP_STLB_BETA|34=331|52=20190523-11:34:09|10=091|
OUT 20190523-11:34:41.417044263 8=FIX.4.4|9=70|35=0|49=MAP_STLB_BETA|56=MAP_BLP_BETA|34=331|52=20190523-11:34:41.417|10=188|
 IN 20190523-11:35:11.286332537 8=FIX.4.4|9=0066|35=0|49=MAP_BLP_BETA|56=MAP_STLB_BETA|34=332|52=20190523-11:34:39|10=095|
OUT 20190523-11:35:11.417537916 8=FIX.4.4|9=70|35=0|49=MAP_STLB_BETA|56=MAP_BLP_BETA|34=332|52=20190523-11:35:11.417|10=187|
 IN 20190523-11:35:41.275006258 8=FIX.4.4|9=0066|35=0|49=MAP_BLP_BETA|56=MAP_STLB_BETA|34=333|52=20190523-11:35:09|10=094|
OUT 20190523-11:35:41.418095142 8=FIX.4.4|9=70|35=0|49=MAP_STLB_BETA|56=MAP_BLP_BETA|34=333|52=20190523-11:35:41.418|10=192|
 IN 20190523-11:36:11.277621295 8=FIX.4.4|9=0066|35=0|49=MAP_BLP_BETA|56=MAP_STLB_BETA|34=334|52=20190523-11:35:39|10=098|
OUT 20190523-11:36:11.418308048 8=FIX.4.4|9=70|35=0|49=MAP_STLB_BETA|56=MAP_BLP_BETA|34=334|52=20190523-11:36:11.418|10=191|
 IN 20190523-11:36:41.280406145 8=FIX.4.4|9=0066|35=0|49=MAP_BLP_BETA|56=MAP_STLB_BETA|34=335|52=20190523-11:36:09|10=097|
OUT 20190523-11:36:41.419117860 8=FIX.4.4|9=70|35=0|49=MAP_STLB_BETA|56=MAP_BLP_BETA|34=335|52=20190523-11:36:41.419|10=196|
 IN 20190523-11:37:11.280256812 8=FIX.4.4|9=0066|35=0|49=MAP_BLP_BETA|56=MAP_STLB_BETA|34=336|52=20190523-11:36:39|10=101|
OUT 20190523-11:37:11.419306020 8=FIX.4.4|9=70|35=0|49=MAP_STLB_BETA|56=MAP_BLP_BETA|34=336|52=20190523-11:37:11.419|10=195|
 IN 20190523-11:37:41.282646142 8=FIX.4.4|9=0066|35=0|49=MAP_BLP_BETA|56=MAP_STLB_BETA|34=337|52=20190523-11:37:09|10=100|
OUT 20190523-11:37:41.419506980 8=FIX.4.4|9=70|35=0|49=MAP_STLB_BETA|56=MAP_BLP_BETA|34=337|52=20190523-11:37:41.419|10=199|
 IN 20190523-11:38:11.281425877 8=FIX.4.4|9=0066|35=0|49=MAP_BLP_BETA|56=MAP_STLB_BETA|34=338|52=20190523-11:37:39|10=104|
OUT 20190523-11:38:11.419649486 8=FIX.4.4|9=70|35=0|49=MAP_STLB_BETA|56=MAP_BLP_BETA|34=338|52=20190523-11:38:11.419|10=198|
 IN 20190523-11:38:41.283744380 8=FIX.4.4|9=0066|35=0|49=MAP_BLP_BETA|56=MAP_STLB_BETA|34=339|52=20190523-11:38:09|10=103|
OUT 20190523-11:38:41.419660153 8=FIX.4.4|9=70|35=0|49=MAP_STLB_BETA|56=MAP_BLP_BETA|34=339|52=20190523-11:38:41.419|10=202|
 IN 20190523-11:39:11.287412002 8=FIX.4.4|9=0066|35=0|49=MAP_BLP_BETA|56=MAP_STLB_BETA|34=340|52=20190523-11:38:39|10=098|
OUT 20190523-11:39:11.420350926 8=FIX.4.4|9=70|35=0|49=MAP_STLB_BETA|56=MAP_BLP_BETA|34=340|52=20190523-11:39:11.420|10=184|
 IN 20190523-11:39:41.284959952 8=FIX.4.4|9=0066|35=0|49=MAP_BLP_BETA|56=MAP_STLB_BETA|34=341|52=20190523-11:39:09|10=097|
OUT 20190523-11:39:41.421124471 8=FIX.4.4|9=70|35=0|49=MAP_STLB_BETA|56=MAP_BLP_BETA|34=341|52=20190523-11:39:41.421|10=189|
 IN 20190523-11:40:11.287179896 8=FIX.4.4|9=0066|35=0|49=MAP_BLP_BETA|56=MAP_STLB_BETA|34=342|52=20190523-11:39:39|10=101|
OUT 20190523-11:40:11.421892044 8=FIX.4.4|9=70|35=0|49=MAP_STLB_BETA|56=MAP_BLP_BETA|34=342|52=20190523-11:40:11.421|10=179|
 IN 20190523-11:40:41.288951840 8=FIX.4.4|9=0066|35=0|49=MAP_BLP_BETA|56=MAP_STLB_BETA|34=343|52=20190523-11:40:09|10=091|
OUT 20190523-11:40:41.422067403 8=FIX.4.4|9=70|35=0|49=MAP_STLB_BETA|56=MAP_BLP_BETA|34=343|52=20190523-11:40:41.422|10=184|
 IN 20190523-11:41:11.291389384 8=FIX.4.4|9=0066|35=0|49=MAP_BLP_BETA|56=MAP_STLB_BETA|34=344|52=20190523-11:40:39|10=095|
OUT 20190523-11:41:11.422205643 8=FIX.4.4|9=70|35=0|49=MAP_STLB_BETA|56=MAP_BLP_BETA|34=344|52=20190523-11:41:11.422|10=183|
 IN 20190523-11:41:41.283521234 8=FIX.4.4|9=0066|35=0|49=MAP_BLP_BETA|56=MAP_STLB_BETA|34=345|52=20190523-11:41:09|10=094|
OUT 20190523-11:41:41.422694176 8=FIX.4.4|9=70|35=0|49=MAP_STLB_BETA|56=MAP_BLP_BETA|34=345|52=20190523-11:41:41.422|10=187|
 IN 20190523-11:42:11.284769659 8=FIX.4.4|9=0066|35=0|49=MAP_BLP_BETA|56=MAP_STLB_BETA|34=346|52=20190523-11:41:39|10=098|
OUT 20190523-11:42:11.423115295 8=FIX.4.4|9=70|35=0|49=MAP_STLB_BETA|56=MAP_BLP_BETA|34=346|52=20190523-11:42:11.423|10=187|
 IN 20190523-11:42:41.288015308 8=FIX.4.4|9=0066|35=0|49=MAP_BLP_BETA|56=MAP_STLB_BETA|34=347|52=20190523-11:42:09|10=097|
OUT 20190523-11:42:41.423253108 8=FIX.4.4|9=70|35=0|49=MAP_STLB_BETA|56=MAP_BLP_BETA|34=347|52=20190523-11:42:41.423|10=191|
 IN 20190523-11:43:11.286959736 8=FIX.4.4|9=0066|35=0|49=MAP_BLP_BETA|56=MAP_STLB_BETA|34=348|52=20190523-11:42:39|10=101|
OUT 20190523-11:43:11.423753161 8=FIX.4.4|9=70|35=0|49=MAP_STLB_BETA|56=MAP_BLP_BETA|34=348|52=20190523-11:43:11.423|10=190|
 IN 20190523-11:43:41.288254241 8=FIX.4.4|9=0066|35=0|49=MAP_BLP_BETA|56=MAP_STLB_BETA|34=349|52=20190523-11:43:09|10=100|
OUT 20190523-11:43:41.423887134 8=FIX.4.4|9=70|35=0|49=MAP_STLB_BETA|56=MAP_BLP_BETA|34=349|52=20190523-11:43:41.423|10=194|
 IN 20190523-11:44:11.290478452 8=FIX.4.4|9=0066|35=0|49=MAP_BLP_BETA|56=MAP_STLB_BETA|34=350|52=20190523-11:43:39|10=095|
OUT 20190523-11:44:11.424317214 8=FIX.4.4|9=70|35=0|49=MAP_STLB_BETA|56=MAP_BLP_BETA|34=350|52=20190523-11:44:11.424|10=185|
 IN 20190523-11:44:41.289928479 8=FIX.4.4|9=0066|35=0|49=MAP_BLP_BETA|56=MAP_STLB_BETA|34=351|52=20190523-11:44:09|10=094|
OUT 20190523-11:44:41.424607773 8=FIX.4.4|9=70|35=0|49=MAP_STLB_BETA|56=MAP_BLP_BETA|34=351|52=20190523-11:44:41.424|10=189|
 IN 20190523-11:45:11.291307891 8=FIX.4.4|9=0066|35=0|49=MAP_BLP_BETA|56=MAP_STLB_BETA|34=352|52=20190523-11:44:39|10=098|
OUT 20190523-11:45:11.424914546 8=FIX.4.4|9=70|35=0|49=MAP_STLB_BETA|56=MAP_BLP_BETA|34=352|52=20190523-11:45:11.424|10=188|
 IN 20190523-11:45:41.291955143 8=FIX.4.4|9=0066|35=0|49=MAP_BLP_BETA|56=MAP_STLB_BETA|34=353|52=20190523-11:45:09|10=097|
OUT 20190523-11:45:41.425206813 8=FIX.4.4|9=70|35=0|49=MAP_STLB_BETA|56=MAP_BLP_BETA|34=353|52=20190523-11:45:41.425|10=193|
 IN 20190523-11:46:11.295224259 8=FIX.4.4|9=0066|35=0|49=MAP_BLP_BETA|56=MAP_STLB_BETA|34=354|52=20190523-11:45:39|10=101|
OUT 20190523-11:46:11.425513586 8=FIX.4.4|9=70|35=0|49=MAP_STLB_BETA|56=MAP_BLP_BETA|34=354|52=20190523-11:46:11.425|10=192|
 IN 20190523-11:46:41.297319190 8=FIX.4.4|9=0066|35=0|49=MAP_BLP_BETA|56=MAP_STLB_BETA|34=355|52=20190523-11:46:09|10=100|
OUT 20190523-11:46:41.425761052 8=FIX.4.4|9=70|35=0|49=MAP_STLB_BETA|56=MAP_BLP_BETA|34=355|52=20190523-11:46:41.425|10=196|
 IN 20190523-11:47:11.295962391 8=FIX.4.4|9=0066|35=0|49=MAP_BLP_BETA|56=MAP_STLB_BETA|34=356|52=20190523-11:46:39|10=104|
OUT 20190523-11:47:11.425928732 8=FIX.4.4|9=70|35=0|49=MAP_STLB_BETA|56=MAP_BLP_BETA|34=356|52=20190523-11:47:11.425|10=195|
 IN 20190523-11:47:41.299795133 8=FIX.4.4|9=0066|35=0|49=MAP_BLP_BETA|56=MAP_STLB_BETA|34=357|52=20190523-11:47:09|10=103|
OUT 20190523-11:47:41.426188145 8=FIX.4.4|9=70|35=0|49=MAP_STLB_BETA|56=MAP_BLP_BETA|34=357|52=20190523-11:47:41.426|10=200|
 IN 20190523-11:48:11.298961854 8=FIX.4.4|9=0066|35=0|49=MAP_BLP_BETA|56=MAP_STLB_BETA|34=358|52=20190523-11:47:39|10=107|
OUT 20190523-11:48:11.426671557 8=FIX.4.4|9=70|35=0|49=MAP_STLB_BETA|56=MAP_BLP_BETA|34=358|52=20190523-11:48:11.426|10=199|
 IN 20190523-11:48:41.292114716 8=FIX.4.4|9=0066|35=0|49=MAP_BLP_BETA|56=MAP_STLB_BETA|34=359|52=20190523-11:48:09|10=106|
OUT 20190523-11:48:41.426852464 8=FIX.4.4|9=70|35=0|49=MAP_STLB_BETA|56=MAP_BLP_BETA|34=359|52=20190523-11:48:41.426|10=203|
 IN 20190523-11:49:11.293774448 8=FIX.4.4|9=0066|35=0|49=MAP_BLP_BETA|56=MAP_STLB_BETA|34=360|52=20190523-11:48:39|10=101|
OUT 20190523-11:49:11.426904944 8=FIX.4.4|9=70|35=0|49=MAP_STLB_BETA|56=MAP_BLP_BETA|34=360|52=20190523-11:49:11.426|10=193|
 IN 20190523-11:49:41.294547567 8=FIX.4.4|9=0066|35=0|49=MAP_BLP_BETA|56=MAP_STLB_BETA|34=361|52=20190523-11:49:09|10=100|
OUT 20190523-11:49:41.427534276 8=FIX.4.4|9=70|35=0|49=MAP_STLB_BETA|56=MAP_BLP_BETA|34=361|52=20190523-11:49:41.427|10=198|
 IN 20190523-11:50:11.296497857 8=FIX.4.4|9=0066|35=0|49=MAP_BLP_BETA|56=MAP_STLB_BETA|34=362|52=20190523-11:49:39|10=104|
OUT 20190523-11:50:11.427584623 8=FIX.4.4|9=70|35=0|49=MAP_STLB_BETA|56=MAP_BLP_BETA|34=362|52=20190523-11:50:11.427|10=188|
 IN 20190523-11:50:41.295979458 8=FIX.4.4|9=0066|35=0|49=MAP_BLP_BETA|56=MAP_STLB_BETA|34=363|52=20190523-11:50:09|10=094|
OUT 20190523-11:50:41.428358169 8=FIX.4.4|9=70|35=0|49=MAP_STLB_BETA|56=MAP_BLP_BETA|34=363|52=20190523-11:50:41.428|10=193|
 IN 20190523-11:51:11.297178390 8=FIX.4.4|9=0066|35=0|49=MAP_BLP_BETA|56=MAP_STLB_BETA|34=364|52=20190523-11:50:39|10=098|
OUT 20190523-11:51:11.428589422 8=FIX.4.4|9=70|35=0|49=MAP_STLB_BETA|56=MAP_BLP_BETA|34=364|52=20190523-11:51:11.428|10=192|
 IN 20190523-11:51:41.290488692 8=FIX.4.4|9=0066|35=0|49=MAP_BLP_BETA|56=MAP_STLB_BETA|34=365|52=20190523-11:51:09|10=097|
OUT 20190523-11:51:41.428770328 8=FIX.4.4|9=70|35=0|49=MAP_STLB_BETA|56=MAP_BLP_BETA|34=365|52=20190523-11:51:41.428|10=196|
 IN 20190523-11:52:11.289244107 8=FIX.4.4|9=0066|35=0|49=MAP_BLP_BETA|56=MAP_STLB_BETA|34=366|52=20190523-11:51:39|10=101|
OUT 20190523-11:52:11.429323714 8=FIX.4.4|9=70|35=0|49=MAP_STLB_BETA|56=MAP_BLP_BETA|34=366|52=20190523-11:52:11.429|10=196|
 IN 20190523-11:52:41.292729969 8=FIX.4.4|9=0066|35=0|49=MAP_BLP_BETA|56=MAP_STLB_BETA|34=367|52=20190523-11:52:09|10=100|
OUT 20190523-11:52:41.429505900 8=FIX.4.4|9=70|35=0|49=MAP_STLB_BETA|56=MAP_BLP_BETA|34=367|52=20190523-11:52:41.429|10=200|
 IN 20190523-11:53:11.292944582 8=FIX.4.4|9=0066|35=0|49=MAP_BLP_BETA|56=MAP_STLB_BETA|34=368|52=20190523-11:52:39|10=104|
OUT 20190523-11:53:11.429979927 8=FIX.4.4|9=70|35=0|49=MAP_STLB_BETA|56=MAP_BLP_BETA|34=368|52=20190523-11:53:11.429|10=199|
 IN 20190523-11:53:41.295426499 8=FIX.4.4|9=0066|35=0|49=MAP_BLP_BETA|56=MAP_STLB_BETA|34=369|52=20190523-11:53:09|10=103|
OUT 20190523-11:53:41.430200086 8=FIX.4.4|9=70|35=0|49=MAP_STLB_BETA|56=MAP_BLP_BETA|34=369|52=20190523-11:53:41.430|10=195|
 IN 20190523-11:54:11.289515466 8=FIX.4.4|9=0066|35=0|49=MAP_BLP_BETA|56=MAP_STLB_BETA|34=370|52=20190523-11:53:39|10=098|
OUT 20190523-11:54:11.430426646 8=FIX.4.4|9=70|35=0|49=MAP_STLB_BETA|56=MAP_BLP_BETA|34=370|52=20190523-11:54:11.430|10=185|
 IN 20190523-11:54:41.288617761 8=FIX.4.4|9=0066|35=0|49=MAP_BLP_BETA|56=MAP_STLB_BETA|34=371|52=20190523-11:54:09|10=097|
OUT 20190523-11:54:41.430456513 8=FIX.4.4|9=70|35=0|49=MAP_STLB_BETA|56=MAP_BLP_BETA|34=371|52=20190523-11:54:41.430|10=189|
 IN 20190523-11:55:11.291510130 8=FIX.4.4|9=0066|35=0|49=MAP_BLP_BETA|56=MAP_STLB_BETA|34=372|52=20190523-11:54:39|10=101|
OUT 20190523-11:55:11.430652352 8=FIX.4.4|9=70|35=0|49=MAP_STLB_BETA|56=MAP_BLP_BETA|34=372|52=20190523-11:55:11.430|10=188|
 IN 20190523-11:55:41.290856051 8=FIX.4.4|9=0066|35=0|49=MAP_BLP_BETA|56=MAP_STLB_BETA|34=373|52=20190523-11:55:09|10=100|
OUT 20190523-11:55:41.431441685 8=FIX.4.4|9=70|35=0|49=MAP_STLB_BETA|56=MAP_BLP_BETA|34=373|52=20190523-11:55:41.431|10=193|
 IN 20190523-11:56:11.292354929 8=FIX.4.4|9=0066|35=0|49=MAP_BLP_BETA|56=MAP_STLB_BETA|34=374|52=20190523-11:55:39|10=104|
OUT 20190523-11:56:11.431995071 8=FIX.4.4|9=70|35=0|49=MAP_STLB_BETA|56=MAP_BLP_BETA|34=374|52=20190523-11:56:11.431|10=192|
 IN 20190523-11:56:41.294677273 8=FIX.4.4|9=0066|35=0|49=MAP_BLP_BETA|56=MAP_STLB_BETA|34=375|52=20190523-11:56:09|10=103|
OUT 20190523-11:56:41.432446910 8=FIX.4.4|9=70|35=0|49=MAP_STLB_BETA|56=MAP_BLP_BETA|34=375|52=20190523-11:56:41.432|10=197|
 IN 20190523-11:57:11.295688045 8=FIX.4.4|9=0066|35=0|49=MAP_BLP_BETA|56=MAP_STLB_BETA|34=376|52=20190523-11:56:39|10=107|
OUT 20190523-11:57:11.433291282 8=FIX.4.4|9=70|35=0|49=MAP_STLB_BETA|56=MAP_BLP_BETA|34=376|52=20190523-11:57:11.433|10=197|
 IN 20190523-11:57:41.288725281 8=FIX.4.4|9=0066|35=0|49=MAP_BLP_BETA|56=MAP_STLB_BETA|34=377|52=20190523-11:57:09|10=106|
OUT 20190523-11:57:41.433877522 8=FIX.4.4|9=70|35=0|49=MAP_STLB_BETA|56=MAP_BLP_BETA|34=377|52=20190523-11:57:41.433|10=201|
 IN 20190523-11:58:11.287522936 8=FIX.4.4|9=0066|35=0|49=MAP_BLP_BETA|56=MAP_STLB_BETA|34=378|52=20190523-11:57:39|10=110|
OUT 20190523-11:58:11.434212028 8=FIX.4.4|9=70|35=0|49=MAP_STLB_BETA|56=MAP_BLP_BETA|34=378|52=20190523-11:58:11.434|10=201|
 IN 20190523-11:58:41.289193760 8=FIX.4.4|9=0066|35=0|49=MAP_BLP_BETA|56=MAP_STLB_BETA|34=379|52=20190523-11:58:09|10=109|
OUT 20190523-11:58:41.434516241 8=FIX.4.4|9=70|35=0|49=MAP_STLB_BETA|56=MAP_BLP_BETA|34=379|52=20190523-11:58:41.434|10=205|
 IN 20190523-11:59:11.291806663 8=FIX.4.4|9=0066|35=0|49=MAP_BLP_BETA|56=MAP_STLB_BETA|34=380|52=20190523-11:58:39|10=104|
OUT 20190523-11:59:11.434901520 8=FIX.4.4|9=70|35=0|49=MAP_STLB_BETA|56=MAP_BLP_BETA|34=380|52=20190523-11:59:11.434|10=195|
 IN 20190523-11:59:41.291055304 8=FIX.4.4|9=0066|35=0|49=MAP_BLP_BETA|56=MAP_STLB_BETA|34=381|52=20190523-11:59:09|10=103|
OUT 20190523-11:59:41.435268026 8=FIX.4.4|9=70|35=0|49=MAP_STLB_BETA|56=MAP_BLP_BETA|34=381|52=20190523-11:59:41.435|10=200|
 IN 20190523-12:00:11.294434500 8=FIX.4.4|9=0066|35=0|49=MAP_BLP_BETA|56=MAP_STLB_BETA|34=382|52=20190523-11:59:39|10=107|
OUT 20190523-12:00:11.435649893 8=FIX.4.4|9=70|35=0|49=MAP_STLB_BETA|56=MAP_BLP_BETA|34=382|52=20190523-12:00:11.435|10=185|
 IN 20190523-12:00:41.293382341 8=FIX.4.4|9=0066|35=0|49=MAP_BLP_BETA|56=MAP_STLB_BETA|34=383|52=20190523-12:00:09|10=092|
OUT 20190523-12:00:41.435727973 8=FIX.4.4|9=70|35=0|49=MAP_STLB_BETA|56=MAP_BLP_BETA|34=383|52=20190523-12:00:41.435|10=189|
 IN 20190523-12:01:11.295931671 8=FIX.4.4|9=0066|35=0|49=MAP_BLP_BETA|56=MAP_STLB_BETA|34=384|52=20190523-12:00:39|10=096|
OUT 20190523-12:01:11.435809892 8=FIX.4.4|9=70|35=0|49=MAP_STLB_BETA|56=MAP_BLP_BETA|34=384|52=20190523-12:01:11.435|10=188|
 IN 20190523-12:01:41.297557696 8=FIX.4.4|9=0066|35=0|49=MAP_BLP_BETA|56=MAP_STLB_BETA|34=385|52=20190523-12:01:09|10=095|
OUT 20190523-12:01:41.436131172 8=FIX.4.4|9=70|35=0|49=MAP_STLB_BETA|56=MAP_BLP_BETA|34=385|52=20190523-12:01:41.436|10=193|
 IN 20190523-12:02:11.297375083 8=FIX.4.4|9=0066|35=0|49=MAP_BLP_BETA|56=MAP_STLB_BETA|34=386|52=20190523-12:01:39|10=099|
OUT 20190523-12:02:11.437170531 8=FIX.4.4|9=70|35=0|49=MAP_STLB_BETA|56=MAP_BLP_BETA|34=386|52=20190523-12:02:11.437|10=193|
 IN 20190523-12:02:41.298640575 8=FIX.4.4|9=0066|35=0|49=MAP_BLP_BETA|56=MAP_STLB_BETA|34=387|52=20190523-12:02:09|10=098|
OUT 20190523-12:02:41.438080183 8=FIX.4.4|9=70|35=0|49=MAP_STLB_BETA|56=MAP_BLP_BETA|34=387|52=20190523-12:02:41.438|10=198|
 IN 20190523-12:03:11.299064681 8=FIX.4.4|9=0066|35=0|49=MAP_BLP_BETA|56=MAP_STLB_BETA|34=388|52=20190523-12:02:39|10=102|
OUT 20190523-12:03:11.438271756 8=FIX.4.4|9=70|35=0|49=MAP_STLB_BETA|56=MAP_BLP_BETA|34=388|52=20190523-12:03:11.438|10=197|
 IN 20190523-12:03:41.303670968 8=FIX.4.4|9=0066|35=0|49=MAP_BLP_BETA|56=MAP_STLB_BETA|34=389|52=20190523-12:03:09|10=101|
OUT 20190523-12:03:41.438343436 8=FIX.4.4|9=70|35=0|49=MAP_STLB_BETA|56=MAP_BLP_BETA|34=389|52=20190523-12:03:41.438|10=201|
 IN 20190523-12:04:11.304075448 8=FIX.4.4|9=0066|35=0|49=MAP_BLP_BETA|56=MAP_STLB_BETA|34=390|52=20190523-12:03:39|10=096|
OUT 20190523-12:04:11.438581516 8=FIX.4.4|9=70|35=0|49=MAP_STLB_BETA|56=MAP_BLP_BETA|34=390|52=20190523-12:04:11.438|10=191|
 IN 20190523-12:04:41.303007929 8=FIX.4.4|9=0066|35=0|49=MAP_BLP_BETA|56=MAP_STLB_BETA|34=391|52=20190523-12:04:09|10=095|
OUT 20190523-12:04:41.438632715 8=FIX.4.4|9=70|35=0|49=MAP_STLB_BETA|56=MAP_BLP_BETA|34=391|52=20190523-12:04:41.438|10=195|
 IN 20190523-12:05:11.304931340 8=FIX.4.4|9=0066|35=0|49=MAP_BLP_BETA|56=MAP_STLB_BETA|34=392|52=20190523-12:04:39|10=099|
OUT 20190523-12:05:11.438903648 8=FIX.4.4|9=70|35=0|49=MAP_STLB_BETA|56=MAP_BLP_BETA|34=392|52=20190523-12:05:11.438|10=194|
 IN 20190523-12:05:41.303527608 8=FIX.4.4|9=0066|35=0|49=MAP_BLP_BETA|56=MAP_STLB_BETA|34=393|52=20190523-12:05:09|10=098|
OUT 20190523-12:05:41.438977888 8=FIX.4.4|9=70|35=0|49=MAP_STLB_BETA|56=MAP_BLP_BETA|34=393|52=20190523-12:05:41.438|10=198|
 IN 20190523-12:06:11.297531243 8=FIX.4.4|9=0066|35=0|49=MAP_BLP_BETA|56=MAP_STLB_BETA|34=394|52=20190523-12:05:39|10=102|
OUT 20190523-12:06:11.439748447 8=FIX.4.4|9=70|35=0|49=MAP_STLB_BETA|56=MAP_BLP_BETA|34=394|52=20190523-12:06:11.439|10=198|
 IN 20190523-12:06:41.299587347 8=FIX.4.4|9=0066|35=0|49=MAP_BLP_BETA|56=MAP_STLB_BETA|34=395|52=20190523-12:06:09|10=101|
OUT 20190523-12:06:41.439900767 8=FIX.4.4|9=70|35=0|49=MAP_STLB_BETA|56=MAP_BLP_BETA|34=395|52=20190523-12:06:41.439|10=202|
 IN 20190523-12:07:11.301520571 8=FIX.4.4|9=0066|35=0|49=MAP_BLP_BETA|56=MAP_STLB_BETA|34=396|52=20190523-12:06:39|10=105|
OUT 20190523-12:07:11.440409780 8=FIX.4.4|9=70|35=0|49=MAP_STLB_BETA|56=MAP_BLP_BETA|34=396|52=20190523-12:07:11.440|10=193|
 IN 20190523-12:07:41.302949476 8=FIX.4.4|9=0066|35=0|49=MAP_BLP_BETA|56=MAP_STLB_BETA|34=397|52=20190523-12:07:09|10=104|
OUT 20190523-12:07:41.441165832 8=FIX.4.4|9=70|35=0|49=MAP_STLB_BETA|56=MAP_BLP_BETA|34=397|52=20190523-12:07:41.441|10=198|
 IN 20190523-12:08:11.303394915 8=FIX.4.4|9=0066|35=0|49=MAP_BLP_BETA|56=MAP_STLB_BETA|34=398|52=20190523-12:07:39|10=108|
OUT 20190523-12:08:11.441971378 8=FIX.4.4|9=70|35=0|49=MAP_STLB_BETA|56=MAP_BLP_BETA|34=398|52=20190523-12:08:11.441|10=197|
 IN 20190523-12:08:41.295456792 8=FIX.4.4|9=0066|35=0|49=MAP_BLP_BETA|56=MAP_STLB_BETA|34=399|52=20190523-12:08:09|10=107|
OUT 20190523-12:08:41.442234204 8=FIX.4.4|9=70|35=0|49=MAP_STLB_BETA|56=MAP_BLP_BETA|34=399|52=20190523-12:08:41.442|10=202|
 IN 20190523-12:09:11.297843989 8=FIX.4.4|9=0066|35=0|49=MAP_BLP_BETA|56=MAP_STLB_BETA|34=400|52=20190523-12:08:39|10=093|
OUT 20190523-12:09:11.442398471 8=FIX.4.4|9=70|35=0|49=MAP_STLB_BETA|56=MAP_BLP_BETA|34=400|52=20190523-12:09:11.442|10=183|
 IN 20190523-12:09:41.297323030 8=FIX.4.4|9=0066|35=0|49=MAP_BLP_BETA|56=MAP_STLB_BETA|34=401|52=20190523-12:09:09|10=092|
OUT 20190523-12:09:41.442982150 8=FIX.4.4|9=70|35=0|49=MAP_STLB_BETA|56=MAP_BLP_BETA|34=401|52=20190523-12:09:41.442|10=187|
 IN 20190523-12:10:11.301499664 8=FIX.4.4|9=0066|35=0|49=MAP_BLP_BETA|56=MAP_STLB_BETA|34=402|52=20190523-12:09:39|10=096|
OUT 20190523-12:10:11.442991110 8=FIX.4.4|9=70|35=0|49=MAP_STLB_BETA|56=MAP_BLP_BETA|34=402|52=20190523-12:10:11.442|10=177|
 IN 20190523-12:10:41.298052202 8=FIX.4.4|9=0066|35=0|49=MAP_BLP_BETA|56=MAP_STLB_BETA|34=403|52=20190523-12:10:09|10=086|
OUT 20190523-12:10:41.443375963 8=FIX.4.4|9=70|35=0|49=MAP_STLB_BETA|56=MAP_BLP_BETA|34=403|52=20190523-12:10:41.443|10=182|
 IN 20190523-12:11:11.301358438 8=FIX.4.4|9=0066|35=0|49=MAP_BLP_BETA|56=MAP_STLB_BETA|34=404|52=20190523-12:10:39|10=090|
